:020000040000FA
:060000000A128A11EE2F26
:1000120083120313AD01AB1F0F2810281728AA095A
:10002200AB09AA0A0319AB0AAD01AD0AA91F1A2826
:100032001B282028A809A909A80A0319A90A28081F
:1000420029040319252826285528AC01AC0A34288E
:1000520001300310A80DA90DFF3E031D2A2801300F
:10006200FC007C08AC07A91F372838282928290852
:100072002B02031D3E2828082A02031C412842287D
:1000820048282808AA022908031CAB03AB02013046
:100092000310A90CA80CFF3E031D49280130AC0235
:1000A200031D5428552838282D08031959285A2881
:1000B2005F28AA09AB09AA0A0319AB0A2B08A900EF
:1000C2002A08A80008000310720D730DF4007408CA
:1000D200FA007A08031D6E286F2878280030F30092
:1000E2000030F2000030F1000030F000DD2870082E
:1000F200F4007108F5007208F6007308F7001F306B
:100102000310F70CF60CF50CF40CFF3E031D8128CE
:100112007408F8007808F900F217FF30F005FF3094
:10012200F105FF30F2050030F3059630FA02FA1FAE
:100132009B289C28B6287A08803A973E0318A22862
:10014200A328A4286F2801300310F30CF20CF10C41
:10015200F00CFF3E031DA5280130F4007408FA07D5
:10016200031DB428B528A428CD2820307A02031C08
:10017200BB28BC28C8286F280130F4000310F00DFA
:10018200F10DF20DF30DF40BBF280130FA027A08DB
:10019200031DCC28CD28BD2879080319D128D228DF
:1001A200DD28F009F109F209F309F00A0319F10A4D
:1001B2000319F20A0319F30A0800F8007808031970
:1001C200E328E428F828F31FE728E828F82870092C
:1001D200FA007109FB007209FC007309FD00FA0ABA
:1001E2000319FB0A0319FC0A0319FD0A0029730803
:1001F200FD007208FC007108FB007008FA00730829
:10020200720471047004031D0729082911290030A2
:10021200F3000030F2000030F1000030F0009729C6
:100222009630F4007408F90023290130F4007408B0
:10023200F90701300310FD0CFC0CFB0CFA0CFF3E1D
:10024200031D1B29FE307D05031D28292929162996
:1002520045290130F4007408F9070130FA0700302B
:1002620003180130FB07003003180130FC0700308F
:1002720003180130FD0701300310FD0CFC0CFB0CD0
:10028200FA0CFF3E031D3D29FF307D05031D4A295F
:100292004B292A2957290130F9020130F4000310B1
:1002A200FA0DFB0DFC0DFD0DF40B5029FC1B5A2918
:1002B2005B296129023079020318602961294C29DE
:1002C2007918642965296D29FF30FA05FF30FB058D
:1002D2007F30FC05FF30FD050310F90C7908F400AE
:1002E200F501F601F70118300310F40DF50DF60DC6
:1002F200F70DFF3E031D75297408FA047508FB0407
:100302007608FC047708FD047808031989298A29EC
:100312008F29F31F8D298E298F29FD177D08F30060
:100322007C08F2007B08F1007A08F00008003E30F9
:100332008400573083120313BA000408BB000B3049
:10034200BC003A08840083130008BD00BA0A3B08C7
:1003520084003D088000BB0ABC0BA2294808BA00F1
:100362003A08D2000A128A15E6260A128A110030C9
:100372000A128A151B270A128A11710883120313A3
:10038200CE007008CD003B30A3009F30A200E830C1
:10039200A1006830A0004D08F0004E08F100F20103
:1003A200F30100300A128A11DE200A128A11730840
:1003B20083120313A7007208A6007108A500700833
:1003C200A4000A128A118D240A128A1183120313BD
:1003D2002308CC002208CB002108CA002008C9004B
:1003E2003C30F3002330F200D730F1000A30F00045
:1003F2004C08F7004B08F6004A08F5004908F400DB
:100402000A128A11AA220A128A117308831203138A
:10041200D6007208D5007108D4007008D3000A30E3
:10042200A8000030A9005608F3005508F20054084D
:10043200F1005308F0000A128A1164200A128A118C
:10044200710883120313AB007008AA000A128A1102
:1004520009200A128A118312031328083E3E8400DF
:1004620083130008BA003A08D1000A30A80000300D
:10047200A9000A30A0000030A1005608F300550878
:10048200F2005408F1005308F0000A128A116420A5
:100492000A128A11710883120313A3007008A200C2
:1004A2000A128A1597270A128A1183120313210846
:1004B200AB002008AA000A128A1109200A128A1126
:1004C2008312031328083E3E840083130008BA00F7
:1004D2003A08D0000A30A8000030A9006430A00019
:1004E2000030A1005608F3005508F2005408F1004C
:1004F2005308F0000A128A1164200A128A11710844
:1005020083120313A3007008A2000A128A15972708
:100512000A128A11831203132108AB002008AA00D1
:100522000A128A1109200A128A1183120313280857
:100532003E3E840083130008BA003A08CF004F30D1
:100542000A128A1561270A128A11B8290A128A1117
:10055200002877088039F800780883120313A40072
:100562007708F8007807F9007908AB00F61FBA2A75
:10057200BB2ABC2A2B142B080319C02AC12AD12A50
:100582002B0A031DC52AC62ACE2A0030F7000030E6
:10059200F6000030F5000030F400F617F701D92A12
:1005A2000030F7000030F6000030F5000030F400B3
:1005B20073088039F8007808A4067308F8007807F1
:1005C200F9007908AC00F21FE72AE82AE92A2C147C
:1005D2002C080319ED2AEE2AFE2A2C0A031DF22A00
:1005E200F32AFB2A0030F3000030F2000030F10061
:1005F2000030F000F217F301062B0030F300003058
:10060200F2000030F1000030F0007308720471044F
:100612007004031D0D2B0E2B272B0030F70000302A
:10062200F6000030F5000030F4008030F6047F3030
:10063200F7042408F8007808F7047708F30076082E
:10064200F2007508F1007408F0008C2C2B08031DD1
:100652002B2B2C2B352B0030F3000030F200003016
:10066200F1000030F0008C2C2B08F800F901790819
:10067200FB002C087802FA00031CFB037A087F3E79
:10068200A5007B080318013E003EA6007708A300E0
:100692007608A2007508A1007408A0000030F700D7
:1006A2000030F6000030F5000030F4000030AA00FF
:1006B2000030A9000030A8000030A700AC01B12B27
:1006C2002C080319652B662B862B0130F8000310CA
:1006D200A00DA10DA20DA30DF80B682B0130F8009F
:1006E2000310F40DF50DF60DF70DF80B712BAA1F83
:1006F2007B2B7C2B7D2B74140130F8000310A70D8B
:10070200A80DA90DAA0DF80B7F2B73082302031D58
:10071200942B72082202031D942B71082102031DDF
:10072200942B70082002031C972B982BAD2B2A17B1
:100732007008A0027108031C710FA02BA12BA1024B
:100742007208031C720FA62BA72BA2027308031CAC
:10075200730FAC2BAD2BA3020130F8007808AC0765
:100762001A302C02031CB62BB72B612B2308220450
:10077200210420040319BE2BBF2BDE2B2714DE2BF2
:100782000130F8000310F40DF50DF60DF70DF80B1E
:10079200C32BAA1FCD2BCE2BCF2B74140130F80004
:1007A2000310A70DA80DA90DAA0DF80BD12BFF3030
:1007B200A5070318A60AFF30A607F61FE12BE22BB6
:1007C200C12BAC01AA1FE62BE72B032CFF30270518
:1007D200F800FF302805F900FF302905FA007F30C4
:1007E2002A05FB007B087A04790478040319FA2BA2
:1007F200FB2BFE2BAC01AC0A032C741C012C022C2B
:10080200032CFB2B2C080319072C082C392C013044
:10081200F407003003180130F507003003180130E7
:10082200F607003003180130F707771C192C1A2C31
:10083200392C7408F8007508F9007608FA00770870
:10084200FB000130FC007B0DFB0CFA0CF90CF80CE0
:10085200FC0B242C7B08F7007A08F6007908F500D7
:100862007808F4000130A5070318A60A0030A6078D
:100872002608803AFF0080307F02031D422CFF30A1
:100882002502031C452C462C542CFF3083120313E3
:10089200A5000030A6000030F7000030F60000305E
:1008A200F5000030F400831203132608803AFF009B
:1008B20080307F02031D5F2C013025020318622C59
:1008C200632C702C83120313A501A6010030F700DC
:1008D2000030F6000030F5000030F400A40183126D
:1008E20003132508F8007808AB002B1C792C7A2C0E
:1008F2007C2CF617802C7F30F8007808F6052B0840
:10090200F8000310780CF9007908F7002408F800C1
:100912007808F7041E2B080083120313230880397A
:10092200A8002808AD002308A8002807A900290864
:10093200B300A21F9D2C9E2C9F2C33143308031945
:10094200A32CA42CB32C330A031DA82CA92CB12C44
:100952000030A3000030A2000030A1000030A0004F
:10096200A217BB2C0030A3000030A2000030A1006F
:100972000030A00027088039A8002808AD06270803
:10098200A8002807A9002908B200A61FC92CCA2C52
:10099200CB2C321432080319CF2CD02CDF2C320A84
:1009A200031DD42CD52CDD2C0030A7000030A6006E
:1009B2000030A5000030A400A617E72C0030A700E5
:1009C2000030A6000030A5000030A4003208031950
:1009D200EB2CEC2CF12C3308031DF02CF12CFA2C0F
:1009E2000030A3000030A2000030A1000030A000BF
:1009F200ED2F2008A8002808F00026080A128A1500
:100A02003A270A128A11710883120313B900700877
:100A1200B8003808A800A901AA01AB012B08B1004F
:100A22002A08B0002908AF002808AE003908A8003B
:100A3200A901AA01AB012B08B7002A08B6002908B0
:100A4200B5002808B4002108A8002808F0002508ED
:100A52000A128A153A270A128A117108831203139D
:100A6200B9007008B8003808A800A901AA01AB01B2
:100A72002808AE07290803110318013E0319422D65
:100A8200AF072A0803110318013E0319492DB007C5
:100A92002B0803110318013E0319502DB107390821
:100AA200A800A901AA01AB012808B407290803116B
:100AB2000318013E03195E2DB5072A080311031816
:100AC200013E0319652DB6072B0803110318013ED9
:100AD20003196C2DB7072208A8002808F000240883
:100AE2000A128A153A270A128A117108831203130D
:100AF200B9007008B8003808A800A901AA01AB0122
:100B02002808AE07290803110318013E03198A2D8C
:100B1200AF072A0803110318013E0319912DB007EC
:100B22002B0803110318013E0319982DB107390848
:100B3200A800A901AA01AB012808B40729080311DA
:100B42000318013E0319A62DB5072A08031103183D
:100B5200013E0319AD2DB6072B0803110318013E00
:100B62000319B42DB7070830A8000310AE0DAF0D5E
:100B7200B00DB10DA80BB62D2108A8002808F00071
:100B820024080A128A153A270A128A117108831256
:100B92000313B9007008B8003808A8003908A90082
:100BA200AA01AB012808AE07290803110318013E68
:100BB2000319DC2DAF072A0803110318013E03199C
:100BC200E32DB0072B0803110318013E0319EA2D88
:100BD200B1072008A8002808F00025080A128A1583
:100BE2003A270A128A11710883120313B900700896
:100BF200B8003808A8003908A900AA01AB012808E2
:100C0200AE07290803110318013E0319092EAF0785
:100C12002A0803110318013E0319102EB0072B08EE
:100C220003110318013E0319172EB1070830A8005B
:100C32000310AE0DAF0DB00DB10DA80B192E20088B
:100C4200A8002808F00024080A128A153A270A1276
:100C52008A11710883120313B9007008B8003808AA
:100C6200A8003908A900AA01AB012808AE07290883
:100C720003110318013E03193F2EAF072A0803117F
:100C82000318013E0319462EB0072B08031103185F
:100C9200013E03194D2EB1072108A8002808F000D3
:100CA20026080A128A153A270A128A117108831233
:100CB2000313B9007008B8003808A8003908A90061
:100CC200AA01AB012808B407290803110318013E41
:100CD20003196C2EB5072A0803110318013E0319E4
:100CE200732EB6072B0803110318013E03197A2E3F
:100CF200B7072208A8002808F00025080A128A155A
:100D02003A270A128A11710883120313B900700874
:100D1200B8003808A8003908A900AA01AB012808C0
:100D2200B407290803110318013E0319992EB507C8
:100D32002A0803110318013E0319A02EB6072B0837
:100D420003110318013E0319A72EB7072208A800B2
:100D52002808F00026080A128A153A270A128A1170
:100D6200710883120313B9007008B8003808A8008C
:100D72003908A900AA01AB0108300310A80DA90D7A
:100D8200AA0DAB0DFF3E031DBE2E2808B40729088D
:100D920003110318013E0319CF2EB5072A080311C8
:100DA2000318013E0319D62EB6072B0803110318A8
:100DB200013E0319DD2EB7072E08A8002F08A9004F
:100DC2003008AA003108AB0018300310AB0CAA0C93
:100DD200A90CA80CFF3E031DE62E2808B40729081B
:100DE20003110318013E0319F72EB5072A08031150
:100DF2000318013E0319FE2EB6072B080311031830
:100E0200013E0319052FB7070830A8000310AE0DE5
:100E1200AF0DB00DB10DA80B072F33083207A80094
:100E2200A901A90D2808823EB80029080318013E2D
:100E3200FF3EB900392F0130A8000310B40DB50DE3
:100E4200B60DB70DA80B1E2FB11F282F292F2A2F41
:100E520034140130A8000310AE0DAF0DB00DB10D6A
:100E6200A80B2C2FFF30B8070318B90AFF30B907B7
:100E7200B61F3C2F3D2F1C2FB201B11F412F422F15
:100E82005E2FFF302E05A800FF302F05A900FF308E
:100E92003005AA007F303105AB002B082A04290453
:100EA20028040319552F562F592FB201B20A5E2F6B
:100EB200341C5C2F5D2F5E2F562F32080319622FD0
:100EC200632F942F0130B407003003180130B507A7
:100ED200003003180130B607003003180130B7079D
:100EE200371C742F752F942F3408A8003508A900D9
:100EF2003608AA003708AB000130AC002B0DAB0C52
:100F0200AA0CA90CA80CAC0B7F2F2B08B7002A083F
:100F1200B6002908B5002808B4000130B807031844
:100F2200B90A0030B9073908803AFF0080307F02E1
:100F3200031D9D2FFF303802031CA02FA12FAC2FC1
:100F42007F3083120313B7008030B6000030B50043
:100F52000030B400E12F831203133908803AFF00F6
:100F620080307F02031DB72F013038020318BA2FD9
:100F7200BB2FC72F003083120313B7000030B60017
:100F82000030B5000030B400AD01E12F831203132D
:100F92003808A8002808B300FF30B405FF30B505B3
:100FA2007F30B6050030B705331CD82FD92FDA2F82
:100FB200B6173308A8000310280CA9002908B700A7
:100FC2002D08A8002808B7043708A3003608A20095
:100FD2003508A1003408A000080083136230FD0028
:100FE2000E30FE00F130FF00573084000A128A15DD
:0E0FF2000C270A128A1183010A128A1198290B
:101DBA00831203131F149F131F17831603139F17EE
:101DCA0008000A128A15FC260A128A150A128A15AE
:101DDA00DD260A128A1508003F3406345B344F3474
:101DEA0066346D347D3407347F346F343934831666
:101DFA00031388010508C3398500831203130508F4
:101E0A00C339850008007E088A007F0882000A120A
:101E1A008A1508270A128A158000840A04087D0692
:101E2A0003190034FF0A0319FE0A0C2FF50075087E
:101E3A00F20003300310F20DFF3E031D1F2F831221
:101E4A0003131F08C73972049F001F151F192E2F6D
:101E5A002F2F2B2F1E08F400831603131E08F300DE
:101E6A007408F1007308F0000800F800F401F501A5
:101E7A007008F200F3017208F6007308F700781C84
:101E8A00472F482F4E2F7608F4070318F50A7708CC
:101E9A00F50701300310F60DF70DFF3E031D4F2F16
:101EAA000310F80C7808031D5B2F5C2F442F75086C
:101EBA00F1007408F0000800F300F40174087307D5
:101ECA00F00070088400831300088312031388004B
:101EDA000430F000740A732F0310F00DFF3E031D47
:101EEA00712F0508C339700485009030F100013064
:101EFA00F200FF30F1070318F20AFF30F207710A05
:101F0A00031D8B2F720A031D8B2F8C2F7E2F0130FE
:101F1A00F0007008F40704307402031C952F962F02
:101F2A00632F080083120313A501A11F9D2F9E2F63
:101F3A00A52FA009A109A00A0319A10AA501A50AAA
:101F4A00A31FA82FA92FB22FA209A309A20A031916
:101F5A00A30A0130FB007B08A506A601A7012008F9
:101F6A0021040319B92FBA2FF12FA401A40AC82FEB
:101F7A0001300310A00DA10DFF3E031DBE2F01303D
:101F8A00FB007B08A407A11FCB2FCC2FBD2F01304C
:101F9A000310A60DA70DFF3E031DCD2F2108230216
:101FAA00031DD92F20082202031CDC2FDD2FE42F6A
:101FBA002008A2022108031CA303A302261401304D
:101FCA000310A10CA00CFF3E031DE52F0130A40253
:101FDA00031DF02FF12FCC2F25080319F52FF62F0B
:101FEA00FB2FA609A709A60A0319A70A2708A10011
:061FFA002608A00008000B
:02400E00FB3F76
:00000001FF
