:020000040000FA
:060000000A128A11EE2F26
:100CCC000A128A116C260A128A1108008316031361
:100CDC008801091189100A128A11F4260A128A1144
:100CEC0008005334633472346F346C346C346934AC
:100CFC006E3467342034443465346D346F342034AE
:100D0C00203400347E088A007F0882000A128A117F
:100D1C0088260A128A118000840A04087D060319A9
:100D2C000034FF0A0319FE0A8C2EF3007308F2003C
:100D3C007208F400A52E0130F2007208F407740852
:100D4C00840083130008031DAC2EAD2EA12E730856
:100D5C007402F000F101F01BF1030800F3007018AD
:100D6C00B82EBC2E831203130915BF2E8312031346
:100D7C000911730888008914A630F100F10BC42EF8
:100D8C0000008312031389101B30F2009E30F10017
:100D9C00F10BCE2EF20BCE2E00000800F600F00167
:100DAC0074080A128A11B4260A128A11EB2EF00169
:100DBC00F00A7608840000080A128A11B4260A1276
:100DCC008A110130F5007508F60776088400831344
:100DDC000008031DF22EF32EDD2E0800C330F500A3
:100DEC00CD30F400F40BF82EF50BF82EF001333067
:100DFC000A128A11B4260A128A111B30F5009E3091
:100E0C00F400F40B072FF50B072F0000F001333023
:100E1C000A128A11B4260A128A11A630F400F40BB5
:100E2C00152F0000F00133300A128A11B4260A1271
:100E3C008A11202F212F0000F00138300A128A115C
:100E4C00B4260A128A11A630F400F40B2B2F0000E2
:100E5C00F00101300A128A11B4260A128A110430E8
:100E6C00F5003D30F400F40B392FF50B392F3E2FE4
:100E7C00F0010C300A128A11B4260A128A11A6301B
:100E8C00F400F40B472F000008000A128A116626A2
:100E9C000A128A11203084003A30F7000408F80056
:100EAC001130F9007708840083130008FA00F70A60
:100EBC00780884007A088000F80AF90B582F203043
:100ECC000A128A119B260A128A11710883120313C3
:100EDC00B7007008B6003608FF3E203E840083132E
:100EEC000008F7007708B5003608FF3EB800370851
:100EFC000318013EFF3EB9003908803AFF008030EC
:100F0C007F02031D8B2F0130380203188E2F8F2F79
:100F1C00902FA52F831203133808FF3E203E840028
:100F2C0083130008F7003808203E840077088000FF
:100F3C00FF30B8070318B90AFF30B907822F8312A4
:100F4C0003133508F7007708A000B0018030F700D4
:100F5C007708F40020300A128A11D4260A128A115A
:100F6C00003083120313B4000130B3008630B2009A
:100F7C00A030B1000130F7000030F8000030F9006B
:100F8C000030FA007708B1027808031C780FCF2FD5
:100F9C00D02FB2027908031C790FD52FD62FB302AC
:100FAC007A08031C7A0FDB2FDC2FB402310A031DE5
:100FBC00E92F320A031DE92F330A031DE92F340AE6
:100FCC00031DE92FEA2FC02F712F0A128A11002856
:100FDC0083134B30FD000630FE007730FF003A30B3
:100FEC0084000A128A118C260A128A1183010A12B1
:040FFC008A114B2FDC
:02400E00FB3F76
:00000001FF
