:020000040000FA
:060000000A128A110C280F
:10000800FE00030EF6000A08F7000A128A111928E2
:100018000A128A110F28F001F101F201F301F4012B
:10002800F50183010A128A11A9280B1D1C281D2815
:100038003628831203130108073E81000130F407B4
:100048000318F50A0030F507203074064E300319FE
:100058007506031D30283128352801308806F4013B
:10006800F5010B11831203130C1C3B283C284E2866
:100078000130F2070318F30A0030F3071430720650
:100088007304031D482849284D2802308806F201C8
:10009800F3010C108C1C5128522866280130F007F7
:1000A8000318F10A0030F10788307006133003197D
:1000B8007106031D60286128652804308806F00150
:1000C800F1018C1077088A00760E8300FE0E7E0EF2
:1000D80009008312031388018316031388010A1287
:1000E8008A119F200A128A110A128A1192200A1272
:1000F8008A110A128A1185200A128A110B178B1786
:1001080008008312031312149210831603138C141D
:10011800FA30920083120313121508008312031396
:100128001014901610120B308F00DC308E008316DE
:1001380003130C140800063083120313810083167E
:10014800031381128B16811508000A128A116D207B
:0C0158000A128A11AE280A128A110C2823
:02400E00FB3F76
:00000001FF
