:020000040000FA
:060000000A128A11F82F1C
:100EA600831603139F17831203131F14080083125C
:100EB600031388018316031388010A128A11532724
:100EC6000A128A110800831203131F151F196C2FAB
:100ED6006D2F692F1E08F300831603131E08F200F8
:100EE6007308F1007208F00008000A128A115A27E6
:100EF6000A128A110A128A1166270A128A117108C1
:100F0600F7007008F6007708F1007608F0000A127C
:100F16008A1193270A128A117D2F0A128A11002834
:100F26007108F5007008F4000130F8020030031C67
:100F3600F903F902780A031DA42F790A031DA42FC9
:100F4600A52FD72FF430F8000130F9007508730289
:100F5600031DAF2F740872020318B22FB32FC12FCF
:100F66000430750674040319B92FBA2FD72F013030
:100F7600F4070318F50A0030F507D72F7308750232
:100F8600031DC72F720874020318CA2FCB2FD72F41
:100F9600740875040319D02FD12FD72F0130F4020E
:100FA6000030031CF503F5027B087502031DDD2FD7
:100FB6007A087402031CE02FE12FE52F8312031336
:100FC6000814E82F83120313081004307B067A04F2
:100FD600031DEE2FEF2FF12FFA01FB010130FA0767
:100FE6000318FB0A0030FB070800F801F901FA01B3
:0A0FF600FB0183010A128A11782F13
:02400E00FB3F76
:00000001FF
