:020000040000FA
:060000000A128A11FC2F18
:100DA600FF3083120313880083160313880108009B
:100DB6000A128A11D3260A128A11FF30F300003074
:100DC600F4000830F7000030F800FB01FC01FF30AA
:100DD600F9000030FA007A08F1007908F000770A85
:100DE600F72E0310F10CF00CFF3E031DF42E7008D5
:100DF600F9007108FA007308790583120313880055
:100E06005030F500C330F6000130F5020030031C07
:100E1600F603F602750A031D142F760A031D142F16
:100E2600152F072F0130F7020030031CF803F802D4
:100E36000130FB070318FC0A0030FC0700307C0277
:100E4600093003197B02031C292F2A2FEA2EF701EA
:100E5600F801FB01FC01FF30F9000030FA00770AC7
:100E6600F0007A08F2007908F1003C2F0310F10D2A
:100E7600F20DF00B392F7108F9007208FA007308A9
:100E860079058312031388005030F500C330F6004D
:100E96000130F5020030031CF603F602750A031D45
:100EA600582F760A031D582F592F4B2F0130F7075D
:100EB6000318F80A0030F8070130FB070318FC0A8C
:100EC6000030FC0700307C02093003197B02031C4A
:100ED6006D2F6E2F2E2F0830F7000030F800FB0123
:100EE600FC01FF30F9000030FA00770AF0007A08BA
:100EF600F2007908F100822F0310F10DF20DF00BCC
:100F06007F2F7108F9007208FA00730879058312B9
:100F1600031388005030F500C330F6000130F502A7
:100F26000030031CF603F602750A031D9E2F760A8F
:100F3600031D9E2F9F2F912F0130F7020030031CB7
:100F4600F803F8020130FB070318FC0A0030FC071F
:100F560000307C02093003197B02031CB32FB42F27
:100F6600742FF701F801FB01FC01FF30F900003096
:100F7600FA007A08F1007908F000770AC52F031005
:100F8600F10CF00CFF3E031DC22F7008F90071082A
:100F9600FA00730879058312031388005030F500B0
:100FA600C330F6000130F5020030031CF603F602EA
:100FB600750A031DE22F760A031DE22FE32FD52FB4
:100FC6000130F7070318F80A0030F8070130FB076D
:100FD6000318FC0A0030FC0700307C0209300319B4
:100FE6007B02031CF72FF82FB82FE02E0A128A1166
:0A0FF600002883010A128A11DB2E85
:02400E00FB3F76
:00000001FF
