:020000040000FA
:100000000A128A11E82FFF1B0D2883137F1883170C
:100010000008840A0319FF0A080000308A00040857
:10002000840A8207003443346F3475346E34743478
:100030003A34303430343034303430343034303496
:1000400030343034303400343134303420344434BB
:100050006934673469347434203463346F347534EC
:100060006E34743465347234003443346F34753410
:080070006E3474343A3400349C
:1008FE000134831603138801091189100A128A1113
:10090E009E250A128A1108000A128A1180240A12E0
:10091E008A110A128A1196240A128A110800831665
:10092E0003130608073886000808F039880081137B
:10093E008312031388150815881408140800F5008F
:10094E00F00174080A128A1168250A128A11F00140
:10095E00F00A75080A128A1168250A128A1108000F
:10096E007E088A007F0882000A128A11B7240A12B2
:10097E008A118000840A04087D0603190034FF0AD8
:10098E000319FE0ABB2C43346F3475346E34743441
:10099E003A3430343034303430343034303430341F
:1009AE003034303430340034303430343034303449
:1009BE003034303430343034303430340034F300AA
:1009CE000A128A1101260A128A11F2007208F40024
:1009DE007308031DF32CF42CF62C74080A2D740ADC
:1009EE000319FA2CFB2C022D7B080319FF2C002D6A
:1009FE00022DFB01F42C740A031D062D072D092D63
:100A0E00FB01FB0AFF300800F600152D0130F20045
:100A1E007208F6070130F2007208F00770088400C1
:100A2E000A128A110D200A128A11F2007608840029
:100A3E0083130008F30072087302F4007408F500C3
:100A4E007508031D2B2D2C2D332D760884000008E0
:100A5E00031D322D332D0D2D7508F000F101F01B05
:100A6E00F1030800F00176080A128A1168250A12AD
:100A7E008A11572DF001F00A7508FF0074088400E2
:100A8E000A128A1103200A128A110A128A11682583
:100A9E000A128A110130F4070318F50A0030F5071F
:100AAE00750883120313FF00740884000A128A115A
:100ABE0003200A128A11003A031D662D672D412D5F
:100ACE000800F30070186C2D702D83120313091596
:100ADE00732D8312031309117308F03988008914DA
:100AEE00A630F100F10B792D00008312031389104B
:100AFE0073080F39F10003300310F10DFF3E031D93
:100B0E00832D0310710D88008914A630F100F10BAE
:100B1E008E2D00008312031389101B30F2009E30BD
:100B2E00F100F10B982DF20B982D00000800C33048
:100B3E00F500CD30F400F40BA22DF50BA22DF00133
:100B4E0033300A128A1168250A128A111B30F500F9
:100B5E009E30F400F40BB12DF50BB12D0000F00119
:100B6E0033300A128A1168250A128A11A630F4004F
:100B7E00F40BBF2D0000F00133300A128A116825E4
:100B8E000A128A11CA2DCB2D0000F00102300A1272
:100B9E008A1168250A128A11A630F400F40BD52D9D
:100BAE000000F00128300A128A1168250A128A11F3
:100BBE00A630F400F40BE12D0000F00101300A1212
:100BCE008A1168250A128A110430F5003D30F400AE
:100BDE00F40BEF2DF50BEF2DF42DF0010C300A1266
:100BEE008A1168250A128A11A630F400F40BFD2D25
:100BFE0000000800831203138811081588140814C6
:100C0E006430F0000030F100FF30F0070318F10AF5
:100C1E00FF30F107700A031D182E710A031D182EDE
:100C2E00192E0B2E8312031306181E2E1F2E212E85
:100C3E000130AC2E8618242E252E272E0230AC2EF7
:100C4E0006192A2E2B2E2D2E0330AC2E88150811A8
:100C5E00881408146430F0000030F100FF30F00703
:100C6E000318F10AFF30F107700A031D422E710AB4
:100C7E00031D422E432E352E831203130618482EC3
:100C8E00492E4B2E0430AC2E86184E2E4F2E512E42
:100C9E000530AC2E0619542E552E572E0630AC2E7E
:100CAE0088150815881008146430F0000030F10023
:100CBE00FF30F0070318F10AFF30F107700A031D29
:100CCE006C2E710A031D6C2E6D2E5F2E8312031374
:100CDE000618722E732E752E0730AC2E8618782EAF
:100CEE00792E7B2E0830AC2E06197E2E7F2E812E6D
:100CFE000930AC2E88150815881408106430F000E1
:100D0E000030F100FF30F0070318F10AFF30F10751
:100D1E00700A031D962E710A031D962E972E892E8C
:100D2E008312031306189C2E9D2E9F2E2A30AC2E56
:100D3E008618A22EA32EA52E0030AC2E0619A82E94
:100D4E00A92EAB2E2330AC2EFF30080083120313D6
:100D5E00BC010F30F7007708C300BF01BD012B3077
:100D6E0084004430F7000408F8001130F9007708C9
:100D7E00840083130008FA00F70A780884007A08C2
:100D8E008000F80AF90BBE2E203084005530F70093
:100D9E000408F8000B30F90077088400831300086C
:100DAE00FA00F70A780884007A088000F80AF90B2E
:100DBE00D32E0A128A118B240A128A111230F400D1
:100DCE008030F5008030F7007708F6000A128A119D
:100DDE0039250A128A112330F4008030F500C03014
:100DEE00F7007708F6000A128A1139250A128A11BD
:100DFE002B30F4000030F500C030F7007708F60015
:100E0E000A128A1139250A128A1101300A128A1120
:100E1E00E6240A128A11F700770883120313C00022
:100E2E004003031D1B2F1C2F342F0130F7004308E6
:100E3E002B3E840077088313800743082B3E8400E3
:100E4E003A300002031C2C2F2D2F342F3030F70098
:100E5E0043082B3E84007708800002304006031DB5
:100E6E00392F3A2F462F0130C302063043020318A2
:100E7E00412F422F462F0F30F7007708C300033063
:100E8E004006031D4B2F4C2F4E2FBF01BF0A3F03B1
:100E9E00031D522F532FC92F0630F7007708BE00BF
:100EAE00602F0130F7007708BE070130F700770892
:100EBE00BD073E082B3E8400303083130006031D11
:100ECE00692F6A2F582FB12F831203133E083D0747
:100EDE00C100C201C20D4208803AFF0080307F027D
:100EEE00031D7B2F10304102031C7E2F7F2F802F7E
:100EFE00A02F8312031341082B3E8400303083133E
:100F0E00000203188B2F8C2F992F4108FF3E2B3E8A
:100F1E008400013080023930F70041082B3E8400F6
:100F2E00770880000130C1070318C20A0030C207DB
:100F3E00722F2B30F4000030F500C030F700770828
:100F4E00F6000A128A1139250A128A11013083120B
:100F5E000313BA020130F7007708F0002B300A12A3
:100F6E008A110B250A128A1170087104031DC02FF5
:100F7E00C12F6B2F83120313BF010F30F7007708B9
:100F8E00C300BD013F08031DCD2FCE2FFF2E013014
:100F9E00BC023C0A031DD42FD52FFF2E0630F700BE
:100FAE007708BC004308C03EF7007708F400FF3016
:100FBE000A128A11A6240A128A11FF2E0A128A1107
:100FCE00002883136030FD000430FE00CA30FF009D
:100FDE00443084000A128A11BB240A128A110A12A2
:100FEE008A117F240A128A11FB0083010A128A11C8
:020FFE00AD2E16
:02400E00FB3F76
:00000001FF
