:020000040000FA
:060000000A128A110C280F
:10000800FE00030EF1000A08F2000A128A119D2868
:100018000A128A110F280A128A11DF200A128A117D
:10002800F5000A128A11E0200A128A11F6000A1253
:100038008A11E1200A128A11F700A001A101F90131
:1000480083010A128A1128280A128A11B6200A1274
:100058008A1100300A128A1173200A128A11831237
:100068000313A2002208F8007908A200A3012308BC
:100078007602031D412822087502031C44284528DE
:1000880047280814482808103E307806031D4D28D4
:100098004E285C28643075067604031954285528C0
:1000A8002D280130F5070318F60A0030F6072D2829
:1000B8003D307806031D612862282D2875087604CE
:1000C8000319672868286F280130F5020030031CDF
:1000D800F603F6022D282D280A128A110C28F4009E
:1000E8007408031D782879287E28831203130608CC
:1000F8003F399C283F30831203130605F3003F3035
:1001080073060319882889289028770803198D28E9
:100118008E289028F70179283F300605F3003F30F4
:100128007306031D982899289B28F701F70A3F3082
:100138000800831203138C1CA228A328AF2864305C
:100148007906031DA828A928AA28F9010130F0007A
:100158007008F9078C1072088A00710E8300FE0E71
:100168007E0E090083120313880183160313880186
:100178008312031308140A128A11D9200A128A1149
:100188000A128A11CC200A128A110B178B17080041
:100198008312031312149210831603138C14FA306B
:1001A800920083120313121508008316031306081E
:0C01B8003F38860008000A34003401348F
:02400E00FB3F76
:00000001FF
