:020000040000FA
:060000000A128A11FC2F18
:100008000A128A1581260A128A11CE308312031326
:10001800E1006108F400DF300A128A1570260A121E
:100028008A1100300A128A1599260A128A11710853
:1000380083120313E3007008E2006308D10062082A
:10004800D0000A128A11CD210A128A1115280A1223
:100058008A11002883120313A501A11F342835280B
:100068003C28A009A109A00A0319A10AA501A50A0B
:10007800A31F3F2840284928A209A309A20A031957
:10008800A30A0130FB007B08A506A601A7012008EA
:1000980021040319502851288828A401A40A5F289C
:1000A80001300310A00DA10DFF3E031D552801309E
:1000B800FB007B08A407A11F62286328542801308D
:1000C8000310A60DA70DFF3E031D64282108230277
:1000D800031D702820082202031C732874287B281B
:1000E8002008A2022108031CA303A302261401303E
:1000F8000310A10CA00CFF3E031D7C280130A402B4
:10010800031D872888286328250803198C288D282B
:100118009228A609A709A60A0319A70A2708A10071
:100128002608A00008000310720D730DF40074086F
:10013800FA007A08031DA128A228AB280030F30092
:100148000030F2000030F1000030F0001029700893
:10015800F4007108F5007208F6007308F7001F3004
:100168000310F70CF60CF50CF40CFF3E031DB42835
:100178007408F8007808F900F217FF30F005FF302E
:10018800F105FF30F2050030F3059630FA02FA1F48
:10019800CE28CF28E9287A08803A973E0318D52830
:1001A800D628D728A22801300310F30CF20CF10C42
:1001B800F00CFF3E031DD8280130F4007408FA073C
:1001C800031DE728E828D728002920307A02031CD5
:1001D800EE28EF28FB28A2280130F4000310F00DC8
:1001E800F10DF20DF30DF40BF2280130FA027A0842
:1001F800031DFF280029F028790803190429052977
:100208001029F009F109F209F309F00A0319F10AB2
:100218000319F20A0319F30A080083120313B00042
:1002280030080319182919292D29AB1F1C291D2944
:100238002D292809B2002909B3002A09B4002B097D
:10024800B500B20A0319B30A0319B40A0319B50AA7
:1002580035292B08B5002A08B4002908B300280856
:10026800B2002B082A0429042804031D3C293D292F
:1002780046290030AB000030AA000030A900003049
:10028800A800CC299630AC002C08B10058290130C0
:10029800AC002C08B10701300310B50CB40CB30C3A
:1002A800B20CFF3E031D5029FE303505031D5D29A4
:1002B8005E294B297A290130AC002C08B10701309E
:1002C800B207003003180130B307003003180130BB
:1002D800B407003003180130B50701300310B50C1E
:1002E800B40CB30CB20CFF3E031D7229FF30350568
:1002F800031D7F2980295F298C290130B102013033
:10030800AC000310B20DB30DB40DB50DAC0B8529BF
:10031800B41B8F2990299629023031020318952998
:1003280096298129311899299A29A229FF30B205DD
:10033800FF30B3057F30B405FF30B5050310B10CAD
:100348003108AC00AD01AE01AF0118300310AC0D9F
:10035800AD0DAE0DAF0DFF3E031DAA292C08B2044A
:100368002D08B3042E08B4042F08B5043008031967
:10037800BE29BF29C429AB1FC229C329C429B5175F
:100388003508AB003408AA003308A9003208A800D1
:1003980008003B3083120313B9009F30B800E830DF
:1003A800B7006830B6005008A8005108A900AA0193
:1003B800AB0100300A128A1111210A128A11831224
:1003C80003132B08BD002A08BC002908BB00280815
:1003D800BA000A128A119B240A128A118312031383
:1003E8003908DA003808D9003708D8003608D700A5
:1003F8003C30F3002330F200D730F1000A30F0002F
:100408005A08F7005908F6005808F5005708F4008C
:100418000A128A11B8220A128A1173088312031366
:10042800E0007208DF007108DE007008DD0012309D
:10043800F4008030F500C630D2005208F6000A12E7
:100448008A15DF260A128A11023083120313DB0091
:100458000030DC000A30A0000030A1006008F30082
:100468005F08F2005E08F1005D08F0000A128A11C8
:1004780097200A128A11710883120313A3007008C7
:10048800A2000A128A1544270A128A11831203133A
:100498002008303ED2005B08533E84005208831384
:1004A80080006008F3005F08F2005E08F1005D0854
:1004B800F0000A128A1197200A128A117108831211
:1004C8000313A3007008A2000A30A0000030A100A6
:1004D8000A128A112E200A128A1183120313200885
:1004E800A8002108A9000030A91BFF30AA00AB0012
:1004F80001300A128A1111210A128A118312031378
:100508002B08E0002A08DF002908DE002808DD00A3
:10051800FF30DB070318DC0AFF30DC075B0A031D2A
:10052800992A5C0A031D992A9A2A2E2AD601533041
:10053800F4000030F500CB30D2005208F6000A1261
:100548008A15DF260A128A111830F4008030F50067
:10055800CF3083120313D2005208F6000A128A150C
:10056800DF260A128A11080077088039F80078080F
:1005780083120313A4007708F8007807F9007908B4
:10058800AB00F61FC82AC92ACA2A2B142B0803193C
:10059800CE2ACF2ADF2A2B0A031DD32AD42ADC2A03
:1005A8000030F7000030F6000030F5000030F400AD
:1005B800F617F701E72A0030F7000030F6000030A0
:1005C800F5000030F40073088039F8007808A406B4
:1005D8007308F8007807F9007908AC00F21FF52ACB
:1005E800F62AF72A2C142C080319FB2AFC2A0C2BB0
:1005F8002C0A031D002B012B092B0030F3000030BF
:10060800F2000030F1000030F000F217F301142B73
:100618000030F3000030F2000030F1000030F0004C
:100628007308720471047004031D1B2B1C2B352BDB
:100638000030F7000030F6000030F5000030F4001C
:100648008030F6047F30F7042408F8007808F704AF
:100658007708F3007608F2007508F1007408F000D6
:100668009A2C2B08031D392B3A2B432B0030F3000F
:100678000030F2000030F1000030F0009A2C2B0816
:10068800F800F9017908FB002C087802FA00031C2D
:10069800FB037A087F3EA5007B080318013E003E55
:1006A800A6007708A3007608A2007508A1007408C0
:1006B800A0000030F7000030F6000030F5000030F0
:1006C800F4000030AA000030A9000030A800003073
:1006D800A700AC01BF2B2C080319732B742B942B88
:1006E8000130F8000310A00DA10DA20DA30DF80B09
:1006F800762B0130F8000310F40DF50DF60DF70D0B
:10070800F80B7F2BAA1F892B8A2B8B2B7414013093
:10071800F8000310A70DA80DA90DAA0DF80B8D2B35
:1007280073082302031DA22B72082202031DA22BA9
:1007380071082102031DA22B70082002031CA52B9F
:10074800A62BBB2B2A177008A0027108031C710F77
:10075800AE2BAF2BA1027208031C720FB42BB52B62
:10076800A2027308031C730FBA2BBB2BA302013020
:10077800F8007808AC071A302C02031CC42BC52BD0
:100788006F2B23082204210420040319CC2BCD2B22
:10079800EC2B2714EC2B0130F8000310F40DF50DA9
:1007A800F60DF70DF80BD12BAA1FDB2BDC2BDD2B5D
:1007B80074140130F8000310A70DA80DA90DAA0D97
:1007C800F80BDF2BFF30A5070318A60AFF30A60792
:1007D800F61FEF2BF02BCF2BAC01AA1FF42BF52B18
:1007E800112CFF302705F800FF302805F900FF30ED
:1007F8002905FA007F302A05FB007B087A04790472
:1008080078040319082C092C0C2CAC01AC0A112C07
:10081800741C0F2C102C112C092C2C080319152CC6
:10082800162C472C0130F407003003180130F50767
:10083800003003180130F607003003180130F707BD
:10084800771C272C282C472C7408F8007508F90009
:100858007608FA007708FB000130FC007B0DFB0CE2
:10086800FA0CF90CF80CFC0B322C7B08F7007A0810
:10087800F6007908F5007808F4000130A507031898
:10088800A60A0030A6072608803AFF0080307F02BB
:10089800031D502CFF302502031C532C542C622CB2
:1008A800FF3083120313A5000030A6000030F700C4
:1008B8000030F6000030F5000030F4008312031316
:1008C8002608803AFF0080307F02031D6D2C01301E
:1008D80025020318702C712C7E2C83120313A5019A
:1008E800A6010030F7000030F6000030F5000030B7
:1008F800F400A401831203132508F8007808AB005C
:100908002B1C872C882C8A2CF6178E2C7F30F8000D
:100918007808F6052B08F8000310780CF900790818
:10092800F7002408F8007808F7042C2B0800831235
:10093800031339088039BE003E08C3003908BE00D9
:100948003E07BF003F08C900B81FAB2CAC2CAD2C2C
:10095800491449080319B12CB22CC12C490A031DAA
:10096800B62CB72CBF2C0030B9000030B8000030CE
:10097800B7000030B600B817C92C0030B9000030F5
:10098800B8000030B7000030B6003D088039BE001E
:100998003E08C3063D08BE003E07BF003F08C8002A
:1009A800BC1FD72CD82CD92C481448080319DD2C87
:1009B800DE2CED2C480A031DE22CE32CEB2C003036
:1009C800BD000030BC000030BB000030BA00BC17CE
:1009D800F52C0030BD000030BC000030BB000030FA
:1009E800BA0048080319F92CFA2CFF2C4908031DF2
:1009F800FE2CFF2C082D0030B9000030B800003064
:100A0800B7000030B600FB2F3608BE003E08F000E5
:100A18003C080A128A15B8260A128A11710883122C
:100A28000313CF007008CE004E08BE00BF01C001FE
:100A3800C1014108C7004008C6003F08C5003E087C
:100A4800C4004F08BE00BF01C001C1014108CD006C
:100A58004008CC003F08CB003E08CA003708BE005B
:100A68003E08F0003B080A128A15B8260A128A11B5
:100A7800710883120313CF007008CE004E08BE0021
:100A8800BF01C001C1013E08C4073F080311031894
:100A9800013E0319502DC507400803110318013EF4
:100AA8000319572DC607410803110318013E0319FE
:100AB8005E2DC7074F08BE00BF01C001C1013E0837
:100AC800CA073F0803110318013E03196C2DCB0711
:100AD800400803110318013E0319732DCC07410880
:100AE80003110318013E03197A2DCD073808BE00FB
:100AF8003E08F0003A080A128A15B8260A128A1126
:100B0800710883120313CF007008CE004E08BE0090
:100B1800BF01C001C1013E08C4073F080311031803
:100B2800013E0319982DC507400803110318013E1B
:100B380003199F2DC607410803110318013E031925
:100B4800A62DC7074F08BE00BF01C001C1013E085E
:100B5800CA073F0803110318013E0319B42DCB0738
:100B6800400803110318013E0319BB2DCC074108A7
:100B780003110318013E0319C22DCD070830BE002A
:100B88000310C40DC50DC60DC70DBE0BC42D370807
:100B9800BE003E08F0003A080A128A15B8260A1262
:100BA8008A11710883120313CF007008CE004E0813
:100BB800BE004F08BF00C001C1013E08C4073F087E
:100BC80003110318013E0319EA2DC5074008031154
:100BD8000318013E0319F12DC60741080311031834
:100BE800013E0319F82DC7073608BE003E08F0007D
:100BF8003B080A128A15B8260A128A11710883124C
:100C08000313CF007008CE004E08BE004F08BF0087
:100C1800C001C1013E08C4073F0803110318013E83
:100C28000319172EC507400803110318013E0319BD
:100C38001E2EC607410803110318013E0319252E6D
:100C4800C7070830BE000310C40DC50DC60DC70D7B
:100C5800BE0B272E3608BE003E08F0003A080A12DE
:100C68008A15B8260A128A11710883120313CF0055
:100C78007008CE004E08BE004F08BF00C001C10179
:100C88003E08C4073F0803110318013E03194D2EFF
:100C9800C507400803110318013E0319542EC6075F
:100CA800410803110318013E03195B2EC7073708D3
:100CB800BE003E08F0003C080A128A15B8260A123F
:100CC8008A11710883120313CF007008CE004E08F2
:100CD800BE004F08BF00C001C1013E08CA073F0857
:100CE80003110318013E03197A2ECB07400803119C
:100CF8000318013E0319812ECC074108031103187C
:100D0800013E0319882ECD073808BE003E08F000C2
:100D18003B080A128A15B8260A128A11710883122A
:100D28000313CF007008CE004E08BE004F08BF0066
:100D3800C001C1013E08CA073F0803110318013E5C
:100D48000319A72ECB07400803110318013E031906
:100D5800AE2ECC07410803110318013E0319B52E26
:100D6800CD073808BE003E08F0003C080A128A1574
:100D7800B8260A128A11710883120313CF0070086B
:100D8800CE004E08BE004F08BF00C001C1010830A8
:100D98000310BE0DBF0DC00DC10DFF3E031DCC2EAF
:100DA8003E08CA073F0803110318013E0319DD2E48
:100DB800CB07400803110318013E0319E42ECC07A2
:100DC800410803110318013E0319EB2ECD0744080F
:100DD800BE004508BF004608C0004708C1001830DB
:100DE8000310C10CC00CBF0CBE0CFF3E031DF42E3B
:100DF8003E08CA073F0803110318013E0319052FCF
:100E0800CB07400803110318013E03190C2FCC0728
:100E1800410803110318013E0319132FCD070830A9
:100E2800BE000310C40DC50DC60DC70DBE0B152F92
:100E380049084807BE00BF01BF0D3E08823ECE00EC
:100E48003F080318013EFF3ECF00472F0130BE0088
:100E58000310CA0DCB0DCC0DCD0DBE0B2C2FC71F0B
:100E6800362F372F382F4A140130BE000310C40D17
:100E7800C50DC60DC70DBE0B3A2FFF30CE070318A0
:100E8800CF0AFF30CF07CC1F4A2F4B2F2A2FC8017C
:100E9800C71F4F2F502F6C2FFF304405BE00FF3067
:100EA8004505BF00FF304605C0007F304705C1003B
:100EB800410840043F043E040319632F642F672F41
:100EC800C801C80A6C2F4A1C6A2F6B2F6C2F642F1D
:100ED80048080319702F712FA22F0130CA0700305C
:100EE80003180130CB07003003180130CC0700305D
:100EF80003180130CD074D1C822F832FA22F4A08DB
:100F0800BE004B08BF004C08C0004D08C1000130AE
:100F1800C200410DC10CC00CBF0CBE0CC20B8D2F02
:100F28004108CD004008CC003F08CB003E08CA006D
:100F38000130CE070318CF0A0030CF074F08803A98
:100F4800FF0080307F02031DAB2FFF304E02031CD1
:100F5800AE2FAF2FBA2F7F3083120313CD0080300E
:100F6800CC000030CB000030CA00EF2F83120313EF
:100F78004F08803AFF0080307F02031DC52F0130E3
:100F88004E020318C82FC92FD52F00308312031320
:100F9800CD000030CC000030CB000030CA00C301C7
:100FA800EF2F831203134E08BE003E08C900FF301E
:100FB800CA05FF30CB057F30CC050030CD05491C74
:100FC800E62FE72FE82FCC174908BE0003103E0C88
:100FD800BF003F08CD004308BE003E08CD044D08C1
:100FE800B9004C08B8004B08B7004A08B60008001A
:100FF80083010A128A110428FF1B0A2883137F1809
:1010080083170008840A0319FF0A080008308A00B9
:101018000408840A820700344C344D3433343534A0
:101028002034543445344D3450344534523420340B
:1010380054344534533454340034543465346D34A2
:0A10480070343A34003443340034AD
:101CB800831203131F149F131F17831603139F17F1
:101CC8000800831603138801091189100A128A155E
:101CD8009F270A128A150800F500F00174080A12F5
:101CE8008A150E270A128A15F001F00A75080A12D9
:101CF8008A150E270A128A1508000A128A156526FF
:101D08000A128A150A128A155C260A128A150130E7
:101D1800F4008030F5008030F7007708F6000A12EA
:101D28008A15DF260A128A150800F5007508F200E0
:101D380003300310F20DFF3E031D9D2E8312031383
:101D48001F08C73972049F001F151F19AC2EAD2E2E
:101D5800A92E1E08F400831603131E08F300740846
:101D6800F1007308F0000800F800F401F5017008AC
:101D7800F200F3017208F6007308F700781CC52E0C
:101D8800C62ECC2E7608F4070318F50A7708F5074F
:101D980001300310F60DF70DFF3E031DCD2E031085
:101DA800F80C7808031DD92EDA2EC22E7508F1001A
:101DB8007408F0000800F00176080A128A150E2748
:101DC8000A128A15FD2EF001F00A7508FF00740842
:101DD80084000A128A1500200A128A150A128A1526
:101DE8000E270A128A150130F4070318F50A003085
:101DF800F507750883120313FF00740884000A129C
:101E08008A1500200A128A15003A031D0C2F0D2F7F
:101E1800E72E0800F3007018122F162F83120313F1
:101E28000915192F8312031309117308F039880053
:101E38008914A630F100F10B1F2F00008312031341
:101E4800891073080F39F10003300310F10DFF3EBC
:101E5800031D292F0310710D88008914A630F10085
:101E6800F10B342F00008312031389101B30F2008A
:101E78009E30F100F10B3E2FF20B3E2F00000800C0
:101E8800FD0183120313A31F4A2F4B2F522FA209C0
:101E9800A309A20A0319A30AFD01FD0AA11F552FD0
:101EA800562F5B2FA009A109A00A0319A10A20082F
:101EB80021040319602F612F902FFC01FC0A6F2F5A
:101EC80001300310A00DA10DFF3E031D652F013049
:101ED800FB007B08FC07A11F722F732F642F2108BA
:101EE8002302031D792F20082202031C7C2F7D2F3B
:101EF800832F2008A2022108031CA303A302013098
:101F08000310A10CA00CFF3E031D842F0130FC021E
:101F1800031D8F2F902F732F7D080319942F952F52
:101F28009A2FA209A309A20A0319A30A2308A10048
:101F38002208A0000800C330F500CD30F400F40BEF
:101F4800A32FF50BA32FF00133300A128A150E27A1
:101F58000A128A151B30F5009E30F400F40BB22FDC
:101F6800F50BB22F0000F00133300A128A150E2744
:101F78000A128A15A630F400F40BC02F0000F001F5
:101F880033300A128A150E270A128A15CB2FCC2F46
:101F98000000F00102300A128A150E270A128A156B
:101FA800D52FD62F0000F00128300A128A150E27E7
:101FB8000A128A15A630F400F40BE02F0000F00195
:101FC80001300A128A150E270A128A150430F50004
:101FD8003D30F400F40BEE2FF50BEE2FF32FF0014C
:101FE8000C300A128A150E270A128A15A630F40038
:081FF800F40BFC2F00000800AF
:02400E00FB3F76
:00000001FF
