:020000040000FA
:060000000A128A110C280F
:10000800FE00030EF4000A08F5000A128A11FD2802
:100018000A128A110F2883134E30FD000230FE00A9
:100028006E30FF00443084000A128A1139220A1205
:100038008A11CE01CF01D001D101D201D301FA0139
:10004800FB01FC01FD0183010A128A112B280A1207
:100058008A1148220A128A110C3083120313C20033
:100068000030C300323084004430AE000408AF00D2
:100078000A30B0002E08840083130008B100AE0ACD
:100088002F08840031088000AF0AB00B3E280130E9
:10009800C0000030C1008312031353084106031D3A
:1000A80057285208400603195A285B28F3280A30B3
:1000B800A8000030A9004308AB004208AA000A12B1
:1000C8008A11C3210A128A11831203132808323EA7
:1000D800840083130008AE002E08BD000A30A80073
:1000E8000030A9000A30A0000030A1004308A30096
:1000F8004208A2000A128A117D210A128A1183126B
:1001080003132108AB002008AA000A128A11C32190
:100118000A128A11831203132808323E84008313BB
:100128000008AE002E08BC000A30A8000030A90064
:100138005308AB005208AA000A128A11C3210A12F6
:100148008A11831203132808323E8400831300089F
:10015800AE002E08BF000A30A8000030A9000A30FF
:10016800A0000030A1005308A3005208A2000A1200
:100178008A117D210A128A11831203132108AB0008
:100188002008AA000A128A11C3210A128A118312AE
:1001980003132808323E840083130008AE002E089B
:1001A800BE003B3052065304031DDB28DC28EF2831
:1001B8000130C2070318C30A0030C307D201D301B4
:1001C800183042064304031DEA28EB28EF280130C3
:1001D800C2000030C3005308C1005208C0003C30C0
:1001E8000A128A11FF210A128A114F280A128A114B
:1001F8000C28831203138C1C022903297629013049
:10020800CE07003003180130CF0700300318013043
:10021800D007003003180130D10780304E064F3028
:1002280003194F061230031950065104031D1D29E6
:100238001E292C290130D2070318D30A0030D3070E
:100248000030D1000030D0000030CF000030CE00A8
:100258000130FA070318FB0A0030FB0721307A0641
:100268004E3003197B06031D3A293B297329803038
:100278008800083085000030F9000030F8000C30A4
:10028800F7008030F6000130F0000030F100003057
:10029800F2000030F3007008F6027108031C710FB9
:1002A80056295729F7027208031C720F5C295D2929
:1002B800F8027308031C730F62296329F902760A8E
:1002C800031D7029770A031D7029780A031D7029F8
:1002D800790A031D702971294729FA01FB01831244
:1002E80003138C1075088A00740E8300FE0E7E0EB0
:1002F800090083120313A501A6012008210403198C
:1003080086298729BE29A701A70A95290130031044
:10031800A00DA10DFF3E031D8B290130A400240868
:10032800A707A11F982999298A2901300310A50D2B
:10033800A60DFF3E031D9A2921082302031DA629A5
:1003480020082202031CA929AA29B1292008A202EF
:100358002108031CA303A302251401300310A10CD8
:10036800A00CFF3E031DB2290130A702031DBD29C1
:10037800BE2999292608A1002508A0000800831293
:100388000313280829040319CA29CB29FA29AD011E
:10039800AD0AD92901300310A80DA90DFF3E031D90
:1003A800CF290130AC002C08AD07A91FDC29DD29B5
:1003B800CE2929082B02031DE32928082A02031C39
:1003C800E629E729ED292808AA022908031CAB0316
:1003D800AB0201300310A90CA80CFF3E031DEE2947
:1003E8000130AD02031DF929FA29DD292B08A900DE
:1003F8002A08A800080083120313A300A4012408F4
:100408002307A00020088400831300088800043014
:10041800A000240A112A0310A00DFF3E031D0F2A75
:100428000508C339200485009030A1000130A200DE
:100438000130A1020030031CA203A202210A031DFD
:10044800292A220A031D292A2A2A1C2A0130A00047
:100458002008A40704302402031C332A342A032A60
:1004680008007E088A007F0882000A128A11352255
:100478000A128A118000840A04087D0603190034D0
:10048800FF0A0319FE0A392A0A128A1155220A128A
:100498008A110A128A1162220A128A110B178B1703
:1004A80008008312031312109210831603138C147E
:1004B800FA309200831203131215080083160313EF
:1004C80088010508C3398500831203130508C33959
:1004D800850008003F3406345B344F3466346D348D
:0804E8007D3407347F346F34CA
:02400E00FB3F76
:00000001FF
