:020000040000FA
:100000000A128A11E02FFF1B0D2883137F18831714
:100010000008840A0319FF0A080000308A00040857
:10002000840A8207003420342034203420342034E1
:100030002034203420342034203420342034203420
:1000400020342034203400344D34733467343A344F
:100050002034203420342034203420342034203400
:100060002034203420342034003445344E34543489
:100070004534523420344E344534573420344E34D1
:1000800055344D3442344534523400344D34733495
:0600900067343A3400342D
:10076E0001340134831603138801091189100A120A
:10077E008A11AB240A128A1108000A128A11B923AF
:10078E000A128A110A128A11CF230A128A1108003C
:10079E00831603130608073886000808F039880008
:1007AE008113831203138815081588140814080082
:1007BE00F500F00174080A128A1137240A128A1100
:1007CE00F001F00A75080A128A1137240A128A11EA
:1007DE0008007E088A007F0882000A128A11F02320
:1007EE000A128A118000840A04087D060319003457
:1007FE00FF0A0319FE0AF42B20342034203420344F
:10080E00203420342034203420342034203420343A
:10081E0020342034203420342034FF343034043457
:10082E00003401340134F2007208F1007108F30053
:10083E00282C0130F1007108F3070130F100710826
:10084E00F0077008840083130008F1007308840019
:10085E00710880000008031D352C362C202C080052
:10086E00F30070183B2C3F2C831203130915422CF6
:10087E00831203130911730888008914A630F1003E
:10088E00F10B472C00008312031389101B30F2006A
:10089E009E30F100F10B512CF20B512C0000080090
:1008AE00F3000A128A1102250A128A11F200720846
:1008BE00F4007308031D642C652C672C74087B2CC4
:1008CE00740A03196B2C6C2C732C7C080319702C76
:1008DE00712C732CFC01652C740A031D772C782C5B
:1008EE007A2CFC01FC0AFF300800F00176080A128F
:1008FE008A1137240A128A119A2CF001F00A75080F
:10090E00FF00740884000A128A1103200A128A1149
:10091E000A128A1137240A128A110130F4070318B9
:10092E00F50A0030F507750883120313FF007408EB
:10093E0084000A128A1103200A128A11003A031D3A
:10094E00A92CAA2C842C0800C330F500CD30F4005D
:10095E00F40BAF2CF50BAF2CF00133300A128A11C9
:10096E0037240A128A111B30F5009E30F400F40B66
:10097E00BE2CF50BBE2C0000F00133300A128A118A
:10098E0037240A128A11A630F400F40BCC2C000086
:10099E00F00133300A128A1137240A128A11D72C29
:1009AE00D82C0000F00138300A128A1137240A12AE
:1009BE008A11A630F400F40BE22C0000F001013095
:1009CE000A128A1137240A128A110430F5003D30BA
:1009DE00F400F40BF02CF50BF02CF52CF0010C3090
:1009EE000A128A1137240A128A11A630F400F40B67
:1009FE00FE2C0000080083120313881108158814BA
:100A0E0008146430F0000030F100FF30F0070318D6
:100A1E00F10AFF30F107700A031D192D710A031D2B
:100A2E00192D1A2D0C2D8312031306181F2D202D90
:100A3E00222D0130AD2D8618252D262D282D023084
:100A4E00AD2D06192B2D2C2D2E2D0330AD2D8815E9
:100A5E000811881408146430F0000030F100FF30E3
:100A6E00F0070318F10AFF30F107700A031D432D3A
:100A7E00710A031D432D442D362D831203130618C0
:100A8E00492D4A2D4C2D0430AD2D86184F2D502D4D
:100A9E00522D0530AD2D0619552D562D582D0630DB
:100AAE00AD2D88150815881008146430F00000303C
:100ABE00F100FF30F0070318F10AFF30F107700A5A
:100ACE00031D6D2D710A031D6D2D6E2D602D83126C
:100ADE0003130618732D742D762D0730AD2D861841
:100AEE00792D7A2D7C2D0830AD2D06197F2D802D78
:100AFE00822D0930AD2D8815081588140810643024
:100B0E00F0000030F100FF30F0070318F10AFF305B
:100B1E00F107700A031D972D710A031D972D982D4D
:100B2E008A2D8312031306189D2D9E2DA02D2A307B
:100B3E00AD2D8618A32DA42DA62D0030AD2D061992
:100B4E00A92DAA2DAC2D2330AD2DFF3008000A1291
:100B5E008A11C4230A128A1183120313C701C80112
:100B6E00E830C4000330C5006208CE006108CD0035
:100B7E00203084005030F7000408F8001130F900DE
:100B8E007708840083130008FA00F70A78088400B7
:100B9E007A088000F80AF90BC72DB0012330F40053
:100BAE008030F5008030F7007708F6000A128A11BF
:100BBE007C240A128A113430F4008030F500C030E3
:100BCE00F7007708F6000A128A117C240A128A119D
:100BDE00831203136603031DF52DF62D292E6708C8
:100BEE00031DFA2DFB2D292E0130C2020030031CED
:100BFE00C303C302420A031D082E430A031D082E17
:100C0E00092E292EF430C2000130C3006308C03E05
:100C1E00F7007708F40047084D3E84008313000860
:100C2E000A128A11DF230A128A110130F70077089F
:100C3E0083120313C70702304702031C272E282EE8
:100C4E00292EC70101300A128A1157240A128A115D
:100C5E00F700770883120313CF004F03031D382EBE
:100C6E00392E542E660803193D2E3E2E542E013079
:100C7E00F7007708CE073A304E02031C472E482E57
:100C8E004C2E3030F7007708CE004E08F70048089B
:100C9E00203E84007708831380004F03031D582ED7
:100CAE00592E5F2E6608031D5D2E5E2E5F2EE5010A
:100CBE0002304F06031D642E652E6C2E6608031D32
:100CCE00692E6A2E6C2EE501E50A02304F06031DD1
:100CDE00712E722E8B2E66080319762E772E8B2E82
:100CEE000130CE0230304E0203187E2E7F2E832E20
:100CFE003930F7007708CE004E08F7004808203E3E
:100D0E00840077088313800005304F06031D902E54
:100D1E00912ED52E66080319952E962ED52E0530BA
:100D2E00F4008030F500C430F7007708F6000A12A0
:100D3E008A117C240A128A112030F4000030F5004A
:100D4E00C430F7007708F6000A128A117C240A12C2
:100D5E008A113030F700770883120313CE0001306A
:100D6E00E3070318E40A0030E4076408803AFF0042
:100D7E0080307F02031DC52E10306302031CC82E67
:100D8E00C92ECF2E043083120313E3000030E4008B
:100D9E000130F700770883120313C80703304F069C
:100DAE00031DDA2EDB2E012F2030F7007708F0001E
:100DBE0031300A128A111A240A128A11831203136D
:100DCE0067080319EB2EED2E0130EE2E0030F700E2
:100DDE007708E7000130F4008030F500C030F700EE
:100DEE007708F6000A128A117C240A128A118312DD
:100DFE000313E60104304F06031D062F072F282F7D
:100E0E000430E3000030E400E601E60AE701233097
:100E1E00F4008030F5008030F7007708F6000A12F3
:100E2E008A117C240A128A111230F4008030F500E7
:100E3E00C030F7007708F6000A128A117C240A12D5
:100E4E008A110630831203134F06031D2F2F302FE6
:100E5E005E2F66080319342F352F5E2F2030F700D2
:100E6E004808203E84007708831380000130C802B2
:100E7E00FF30E3070318E40AFF30E407033063068C
:100E8E006404031D4B2F4C2F502F0F30E300003006
:100E9E00E4002030F4000030F500C430F70077088D
:100EAE00F6000A128A117C240A128A11EF2D6703AA
:100EBE00031D622F632FEF2D0130C4020030031C7F
:100ECE00C503C502440A031D702F450A031D702F6A
:100EDE00712FDC2FE830C4000330C5006503031DFD
:100EEE00792F7A2FA72F3108F7007708C600C9018E
:100EFE00CA01831203134908013E313E8400831355
:100F0E000008F7004908313E840077088000013060
:100F1E00C9070318CA0A0030CA074A08803AFF00F8
:100F2E0080307F02031D9D2F10304902031CA02F1D
:100F3E00A12F802F831203134608F7007708C000F5
:100F4E006508031DAB2FAC2FCE2F4008F700770896
:100F5E00C6000F30CB000030CC004B08FF3E313EB8
:100F6E00840083130008F7004B08313E8400770895
:100F7E008000FF30CB070318CC0AFF30CC07CC1F04
:100F8E00C92FCA2FB42F4608F7007708B1003130A9
:100F9E00F4000030F500C030F7007708F6000A12B2
:100FAE008A117C240A128A11EF2DEF2D0A128A1152
:100FBE00002883136730FD000430FE000330FF006D
:100FCE00503084000A128A11F4230A128A110A126E
:100FDE008A11B7230A128A11FB000A128A11B8234A
:100FEE000A128A11FC00E701FD0183010A128A111F
:020FFE00AE2D16
:02400E00FB3F76
:00000001FF
