:020000040000FA
:060000000A128A11ED2F27
:100E7800013432348316031306083F38860008000D
:100E88008312031388018316031388010A128A1137
:100E98003E270A128A110800F1007108031D552F18
:100EA800562F5B2F8312031306083F39792F3F30E3
:100EB800831203130605F0003F3070060319652FEF
:100EC800662F6D2F790803196A2F6B2F6D2FF90183
:100ED800562F3F300605F0003F307006031D752F72
:100EE800762F782FF901F90A3F3008000A128A1183
:100EF80044270A128A1100300A128A1150270A124E
:100F08008A11F2007208F50075080A128A11A427DE
:100F18000A128A116430F3000030F4000130F30241
:100F28000030031CF403F402730A031D9F2F740A94
:100F3800031D9F2FA02F922F7F2F0A128A1100289E
:100F4800F1000130F6020030031CF703F702760ABD
:100F5800031DB22F770A031DB22FB32FD42FF430FD
:100F6800F6000130F7003E307106031DBC2FBD2F7F
:100F7800C72F64307A060319C22FC32FC72F013039
:100F8800F0007008FA073D307106031DCC2FCD2FF5
:100F9800D42F7A080319D12FD22FD42F0130FA0277
:100FA80078087A02031CD92FDA2FDE2F8312031355
:100FB8000814E12F83120313081064307806031D08
:100FC800E62FE72FE82FF8010130F0007008F80746
:100FD80008000A128A113C270A128A11F9000A121B
:100FE8008A113D270A128A11FA00F601F701F80161
:080FF80083010A128A117A2F0D
:02400E00FB3F76
:00000001FF
