:020000040000FA
:060000000A128A11D72F3D
:100D420001340134F0340034553400348316031373
:100D520006083F38860008008312031388018316B1
:100D6200031388010A128A11A7260A128A1108009F
:100D7200F1007108031DBE2EBF2EC42E8312031371
:100D820006083F39E22E3F30831203130605F000B6
:100D92003F3070060319CE2ECF2ED62E7B080319B4
:100DA200D32ED42ED62EFB01BF2E3F300605F000E7
:100DB2003F307006031DDE2EDF2EE12EFB01FB0A03
:100DC2003F3008000A128A11AD260A128A11013038
:100DD2000A128A11B9260A128A11F5007508F90059
:100DE2003F3079060319F62EF72EFE2E83120313D7
:100DF20088017908F5007508F8000130F602003024
:100E0200031CF703F702760A031D0B2F770A031D53
:100E12000B2F0C2FE82EB830F6000B30F7007808B5
:100E22000A128A111A270A128A11E82E0A128A1144
:100E32000028F4003E307406031D202F212F7D2F41
:100E42007A03031D252F262F342F0130F0007C0A50
:100E52002C2F0310F00DFF3E031D2A2F7008831262
:100E620003130804880002307A06031D392F3A2F33
:100E7200402F831203130808F00070078800033024
:100E82007A06031D452F462F582F7C0AF00080302A
:100E9200F1000030F200502F720DF20CF10CF00B49
:100EA2004D2F7108F3007308831203138804043072
:100EB2007A06031D5D2F5E2F652F83120313080828
:100EC200F0000310700C88000130F0007008FC077D
:100ED20008307C06031D6E2F6F2FD62FFC010130C8
:100EE200F0007008FA0705307A02031C792F7A2F76
:100EF200D62FFA01FA0AD62F3D307406031D822F2F
:100F0200832FBD2F7A03031D872F882F9A2F7C0AE8
:100F1200F0008030F1000030F200922F720DF20CDE
:100F2200F10CF00B8F2F7108F30073088312031377
:100F3200880402307A06031D9F2FA02FA72F831249
:100F420003130808F0000310700C88000130F00051
:100F52007008FC0708307C06031DB02FB12FD62F76
:100F6200FC010130F0007008FA0703307A02031C1A
:100F7200BB2FBC2FD62F7A2F3B307406031DC22FF6
:100F8200C32FCA2F83120313A209A30922088800C0
:100F9200D62F37307406031DCF2FD02FD62F8312B2
:100FA2000313A009A1092008880008000A128A1167
:100FB200A3260A128A11A0000A128A11A4260A1272
:100FC2008A11A1000A128A11A5260A128A11A20008
:100FD2000A128A11A6260A128A11A3000A128A117B
:100FE200A1260A128A11FA000A128A11A2260A12EC
:0E0FF2008A11FB00FC0183010A128A11E32E12
:02400E00FB3F76
:00000001FF
