:020000040000FA
:060000000A128A110C280F
:10000800FE00030EF6000A08F7000A128A112428D7
:100018000A128A110F280A128A11ED200A128A116F
:10002800F9000A128A11EE200A128A11FA00F00168
:10003800F101F201F301F40183010A128A11AA28DD
:10004800831203138C1C29282A284A280130F20716
:100058000318F30A0030F3076A30720618300319E0
:100068007306031D3828392840283230F5007508F2
:10007800F900F201F301492874087902031C4528A4
:10008800462848280814492808108C108C1C4D282C
:100098004E28502808108C1077088A00760E8300A6
:1000A800FE0E7E0E090083120313A0000130F00239
:1000B8000030031CF103F102700A031D6728710A5E
:1000C800031D672868287628C430F0000930F1003D
:1000D8003E302006031D7128722876286430F80007
:1000E8007808F90064307406031D7B287C287D2875
:1000F800F4010130F8007808F407080083120313AC
:10010800A0002008031D89288A288D2806083F3961
:10011800A9283F300605F8003F30780603199528CE
:1001280096289D287A0803199A289B289D28FA0161
:100138008A283F300605F8003F307806031DA528B9
:10014800A628A828FA01FA0A3F3008000A128A11DC
:10015800C4200A128A1100300A128A1182200A1257
:100168008A1183120313A1002108A20022080A128F
:100178008A1157200A128A11AF280A128A110C28EC
:100188008312031388018316031388018312031350
:1001980008140A128A11E7200A128A110A128A110F
:1001A800DA200A128A110B178B170800831203131F
:1001B80012149214831603138C14FA3092008312CB
:1001C8000313121508008316031306083F38860028
:0601D8000800323401347E
:02400E00FB3F76
:00000001FF
