:020000040000FA
:100000000A128A11EE2FFF1B0D2883137F18831706
:100010000008840A0319FF0A080000308A00040857
:10002000840A820700343134303420344434693453
:10003000673469347434203463346F3475346E3407
:100040007434653472340034303430343034303405
:10005000303430343034303430343034003463347D
:0C0060006F3475346E3474343A3400345C
:100C64000A128A1138260A128A11080083160313FD
:100C74008801091189100A128A11E9260A128A11B7
:100C840008007E088A007F0882000A128A1143261F
:100C94000A128A118000840A04087D0603190034AC
:100CA400FF0A0319FE0A472E30343034303430340E
:100CB4003034303430343034303430340034393437
:100CC40039343934393439343934393439343934B8
:100CD40039340034F3007018702E742E8312031309
:100CE4000915772E831203130911730888008914D8
:100CF400A630F100F10B7C2E00008312031389103F
:100D04001B30F2009E30F100F10B862EF20B862E82
:100D140000000800F600962E0130F2007208F60773
:100D24000130F2007208F007700884000A128A1178
:100D34000D200A128A11F200760884008313000839
:100D4400F30072087302F4007408F5007508031DBB
:100D5400AC2EAD2EB42E760884000008031DB32EED
:100D6400B42E8E2E7508F000F101F01BF10308007B
:100D7400F00176080A128A116C260A128A11D82EFA
:100D8400F001F00A7508FF00740884000A128A1141
:100D940003200A128A110A128A116C260A128A1175
:100DA4000130F4070318F50A0030F50775088312BB
:100DB4000313FF00740884000A128A1103200A1224
:100DC4008A11003A031DE72EE82EC22E0800C33014
:100DD400F500CD30F400F40BED2EF50BED2EF00103
:100DE40033300A128A116C260A128A111B30F5005C
:100DF4009E30F400F40BFC2EF50BFC2E0000F001E9
:100E040033300A128A116C260A128A11A630F400B1
:100E1400F40B0A2F0000F00133300A128A116C26F9
:100E24000A128A11152F162F0000F00138300A1209
:100E34008A116C260A128A11A630F400F40B202FB2
:100E44000000F00101300A128A116C260A128A117C
:100E54000430F5003D30F400F40B2E2FF50B2E2F4B
:100E6400332FF0010C300A128A116C260A128A11EF
:100E7400A630F400F40B3C2F000008000A128A117B
:100E840032260A128A112D3084004530F7000408F6
:100E9400F8000B30F9007708840083130008FA0087
:100EA400F70A780884007A088000F80AF90B4D2FB5
:100EB400203084003A30F7000408F8000B30F900C1
:100EC4007708840083130008FA00F70A780884007E
:100ED4007A088000F80AF90B622F0130F4008030A0
:100EE400F5008030F7007708F6000A128A11BA2656
:100EF4000A128A111D30F4008030F500C030F7006A
:100F04007708F6000A128A11BA260A128A112D30BD
:100F1400F4000030F500C630F7007708F6000A1236
:100F24008A11BA260A128A1183120313B801B9016D
:100F34008312031338082D3E8400303083130002DB
:100F44000318A52FA62FB32F3808FF3E2D3E84008B
:100F5400013080023930F70038082D3E84007708CC
:100F640080000130B8070318B90A0030B9073908FE
:100F7400803AFF0080307F02031DC22F0A303802FE
:100F8400031CC52FC62F9A2F2D30F4000030F50016
:100F9400C630F7007708F6000A128A11BA260A1238
:100FA4008A111230F7007708F0002D300A128A11E6
:100FB4008C260A128A1170087104031DE22FE32F94
:100FC400E62F0A128A11E52F013083120313B602A9
:100FD400962F0A128A11002883135030FD00063020
:100FE400FE005630FF003A3084000A128A11472668
:0C0FF4000A128A1183010A128A11402F90
:02400E00FB3F76
:00000001FF
