:020000040000FA
:100000000A128A11E62F00308A000408840A820747
:100010000034203420342034203420342034203460
:100020002034203420342034203420342034203430
:1000300020340034523465347334653474342034DD
:10004000743468346534203462346F34613472340B
:10005000643420340034203445346E3474346534D0
:1000600072342034503461347334733477346F34E1
:1000700072346434203400342034453478346334AA
:1000800065346C346C3465346E347434203420340C
:1000900059346F3475342034003443346834613457
:1000A0006E346334653473342034453478346134C9
:1000B00075347334743465346434003443347234C6
:1000C000613463346B34653464342034743468349C
:1000D0006534203463346F3464346534003431342F
:1000E0003234313432343134323431343234003415
:1008CC0005340034033400340134013467346400DB
:1008DC008001840A04060319003404066E2C831666
:1008EC0003138801091189100A128A11D8250A12DA
:1008FC008A1108008312031312109210831603132B
:10090C008C14FA309200831203131215080083160C
:10091C0003130608073886000808F039880081138D
:10092C00831203130815881488150800F500F001CC
:10093C0074080A128A11A2250A128A11F001F00A0F
:10094C0075080A128A11A2250A128A1108007E085B
:10095C008A007F0882000A128A11AD240A128A11B9
:10096C008000840A04087D0603190034FF0A031969
:10097C00FE0AB12C0A128A1175240A128A110A1263
:10098C008A1180240A128A110A128A118D240A12E1
:10099C008A118316031386138312031386138B1782
:1009AC000B170800F401F501701CDD2CDE2CE42C77
:1009BC007208F4070318F50A7308F50701300310E1
:1009CC00F20DF30DFF3E031DE52C01300310F10C6D
:1009DC00F00CFF3E031DEC2C70087104031DF72C6A
:1009EC00F82CDA2C7508F1007408F00008000130BE
:1009FC0083120313A0020030031CA103A102200ADE
:100A0C00031D0C2D210A031D0C2D0D2D222D7708F5
:100A1C00F1007608F0001430F2000030F3000A12F6
:100A2C008A11D8240A128A11710883120313A100A7
:100A3C007008A000803086060800F600F0017408EB
:100A4C000A128A11A2250A128A113E2DF001F00A0F
:100A5C00760884000A128A1103200A128A110A12DB
:100A6C008A11A2250A128A110130F5007508F607C1
:100A7C00760884000A128A1103200A128A11003A9D
:100A8C00031D492D4A2D2C2D0800F3000A128A1142
:100A9C003B260A128A11F2007208F4007308031D37
:100AAC00582D592D5B2D7408732D740A03195F2D65
:100ABC00602D692D8312031337080319662D672DDA
:100ACC00692DB701592D740A031D6D2D6E2D722DD4
:100ADC0083120313B701B70AFF300800F6007E2D0E
:100AEC000130F2007208F6070130F2007208F007CC
:100AFC00700884000A128A1103200A128A11F2006B
:100B0C007608840083130008F30072087302F40063
:100B1C007408F5007508031D942D952D9C2D7608F1
:100B2C0084000008031D9B2D9C2D762D7508F0006C
:100B3C00F101F01BF1030800F3007018A62DAA2D8B
:100B4C00831203130915AD2D8312031309117308B6
:100B5C00F03988008914A630F100F10BB32D000098
:100B6C0083120313891073080F39F100033003103B
:100B7C00F10DFF3E031DBD2D0310710D880089146E
:100B8C00A630F100F10BC82D00008312031389105D
:100B9C001B30F2009E30F100F10BD22DF20BD22D56
:100BAC0000000800C330F500CD30F400F40BDC2D50
:100BBC00F50BDC2DF00133300A128A11A2250A1232
:100BCC008A111B30F5009E30F400F40BEB2DF50B65
:100BDC00EB2D0000F00133300A128A11A2250A1203
:100BEC008A11A630F400F40BF92D0000F00133301B
:100BFC000A128A11A2250A128A11042E052E00004F
:100C0C00F00102300A128A11A2250A128A11A630AA
:100C1C00F400F40B0F2E0000F00128300A128A1198
:100C2C00A2250A128A11A630F400F40B1B2E000028
:100C3C00F00101300A128A11A2250A128A1104301D
:100C4C00F5003D30F400F40B292EF50B292E2E2E39
:100C5C00F0010C300A128A11A2250A128A11A63050
:100C6C00F400F40B372E00000800831203138811D4
:100C7C00081588146430F0000030F100FF30F007E4
:100C8C000318F10AFF30F107700A031D512E710A87
:100C9C00031D512E522E442E831203130618572E69
:100CAC00582E5A2E0130B92E86185D2E5E2E602ECF
:100CBC000230B92E0619632E642E662E0330B92E1F
:100CCC000811881488156430F0000030F100FF30F2
:100CDC00F0070318F10AFF30F107700A031D7A2E92
:100CEC00710A031D7A2E7B2E6D2E831203130618A8
:100CFC00802E812E832E0430B92E8618862E872EB8
:100D0C00892E0530B92E06198C2E8D2E8F2E06307D
:100D1C00B92E0815881088156430F0000030F100E9
:100D2C00FF30F0070318F10AFF30F107700A031DBA
:100D3C00A32E710A031DA32EA42E962E8312031329
:100D4C000618A92EAA2EAC2E0730B92E8618AF2E57
:100D5C00B02EB22E0830B92E0619B52EB62EB82EDE
:100D6C000930B92EFF300800F901FA01FC01FD0130
:100D7C000A128A11C0240A128A118312031334082E
:100D8C00803AFF0080307F02031DCE2E05303302E7
:100D9C000318D12ED22EE12E83120313B41BD72E9F
:100DAC00D82EE12E3408F7003308F6000A128A1107
:100DBC00FD240A128A1101300A128A114B250A12DB
:100DCC008A11F8007808FB00831203133808031902
:100DDC00F02EF12E332F33083404031DF62EF72E8C
:100DEC00132F8030F8007808F40045300A128A116D
:100DFC0023250A128A11C030F8007808F40012304A
:100E0C000A128A1123250A128A1111308312031334
:100E1C00B5000030B600B801332F8030F8007808E8
:100E2C00F40023300A128A1123250A128A11C030C9
:100E3C00F8007808F40001300A128A1123250A12EE
:100E4C008A1183120313B201B801FC01FD010330B6
:100E5C00B5000030B600F901FA017B0A0319372FEF
:100E6C00382F6A2F3608803AFF0080307F02031D2E
:100E7C00412F0B3035020318442F452FB52F7B081B
:100E8C00303EF8007C08293E8400780883138000EB
:100E9C00831203133508C03EF8007808F4002A309A
:100EAC000A128A119C240A128A110130FC070318B9
:100EBC00FD0A0030FD07013083120313B507031838
:100ECC00B60A0030B607B52F08307C067D04031D2A
:100EDC00702F712FB52F7C08293E8400831380015D
:100EEC006730F8007808F00029300A128A1174254E
:100EFC000A128A1170087104031D852F862FA52FE5
:100F0C008030F8007808F40034300A128A11232556
:100F1C000A128A11C030F8007808F40056300A1210
:100F2C008A1123250A128A110430F9000030FA00C4
:100F3C00053083120313B3000030B400B52F8312B5
:100F4C000313330834040319AC2FAD2FB52FB8019C
:100F5C00B80AFF30B3070318B40AFF30B4070130E6
:100F6C00F9020030031CFA03FA02790A031DC22F9E
:100F7C007A0A031DC22FC32FD52F0130F900003080
:100F8C00FA00831203133508C03EF8007808F40009
:100F9C005F300A128A119C240A128A11C32E831202
:100FAC0003133508C03EF8007808F40020300A120C
:100FBC008A119C240A128A11C32E0A128A11002843
:100FCC0083133A30FD000430FE006630FF003330EE
:100FDC0084000A128A11B1240A128A11203084006A
:100FEC0033300A128A116D240A128A1183010A12F3
:040FFC008A11BA2E6E
:02400E00FB3F76
:00000001FF
