:020000040000FA
:100000000A128A11EE2FFF1B0D2883137F18831706
:100010000008840A0319FF0A080000308A00040857
:10002000840A820700343134303420344434693453
:10003000673469347434203463346F3475346E3407
:1000400074346534723400343934393439343934E1
:100050003934393439343934393439340034633447
:0C0060006F3475346E3474343A3400345C
:100C6E000A128A113D260A128A11080083160313EE
:100C7E008801091189100A128A11EE260A128A11A8
:100C8E0008007E088A007F0882000A128A11482610
:100C9E000A128A118000840A04087D0603190034A2
:100CAE00FF0A0319FE0A4C2E3934393439343934DB
:100CBE003934393439343934393439340034303400
:100CCE0030343034303430343034303430343034F6
:100CDE0030340034F3007018752E792E83120313FE
:100CEE0009157C2E831203130911730888008914C9
:100CFE00A630F100F10B812E000083120313891030
:100D0E001B30F2009E30F100F10B8B2EF20B8B2E6E
:100D1E0000000800F6009B2E0130F2007208F60764
:100D2E000130F2007208F007700884000A128A116E
:100D3E000D200A128A11F20076088400831300082F
:100D4E00F30072087302F4007408F5007508031DB1
:100D5E00B12EB22EB92E760884000008031DB82ECF
:100D6E00B92E932E7508F000F101F01BF103080067
:100D7E00F00176080A128A1171260A128A11DD2EE6
:100D8E00F001F00A7508FF00740884000A128A1137
:100D9E0003200A128A110A128A1171260A128A1166
:100DAE000130F4070318F50A0030F50775088312B1
:100DBE000313FF00740884000A128A1103200A121A
:100DCE008A11003A031DEC2EED2EC72E0800C330FB
:100DDE00F500CD30F400F40BF22EF50BF22EF001EF
:100DEE0033300A128A1171260A128A111B30F5004D
:100DFE009E30F400F40B012FF50B012F0000F001D3
:100E0E0033300A128A1171260A128A11A630F400A2
:100E1E00F40B0F2F0000F00133300A128A117126E5
:100E2E000A128A111A2F1B2F0000F00138300A12F5
:100E3E008A1171260A128A11A630F400F40B252F9E
:100E4E000000F00101300A128A1171260A128A116D
:100E5E000430F5003D30F400F40B332FF50B332F37
:100E6E00382FF0010C300A128A1171260A128A11DB
:100E7E00A630F400F40B412F000008000A128A116C
:100E8E0037260A128A112D3084004530F7000408E7
:100E9E00F8000B30F9007708840083130008FA007D
:100EAE00F70A780884007A088000F80AF90B522FA6
:100EBE00203084003A30F7000408F8000B30F900B7
:100ECE007708840083130008FA00F70A7808840074
:100EDE007A088000F80AF90B672F0130F400803091
:100EEE00F5008030F7007708F6000A128A11BF2647
:100EFE000A128A111D30F4008030F500C030F70060
:100F0E007708F6000A128A11BF260A128A112D30AE
:100F1E00F4000030F500C630F7007708F6000A122C
:100F2E008A11BF260A128A11093083120313B800E0
:100F3E000030B90038082D3E84003A308313000289
:100F4E00031CAA2FAB2FBA2F0130F7003808FF3E33
:100F5E002D3E8400770880073030F70038082D3E8C
:100F6E00840077088000FF30B8070318B90AFF30F5
:100F7E00B907B91FC32FC42FA12F2D30F400003095
:100F8E00F500C630F7007708F6000A128A11BF2660
:100F9E000A128A111230F7007708F0002D300A126B
:100FAE008A1191260A128A1170087104031DE02F0E
:100FBE00E12FE42F0A128A11E32F0130F700770890
:100FCE0083120313B6079B2F0A128A11002883136C
:100FDE005030FD000630FE005B30FF003A308400DA
:100FEE000A128A114C260A128A1183010A128A11D8
:020FFE00452F7D
:02400E00FB3F76
:00000001FF
