:020000040000FA
:060000000A128A110C280F
:10000800FE00030EF8000A08F9000A128A111B28DC
:100018000A128A110F28F001F101F201F301F4012B
:10002800F501F601F70183010A128A11912883125A
:1000380003138C1C202821288A280130F002003064
:10004800031CF103F102700A031D2E28710A031D17
:100058002E282F286D28F430F0000130F1002108F7
:10006800F7002008F60077087302031D3D2876087C
:10007800720203184028412853287708F3007608AD
:10008800F20004307706760403194B284C286D28B3
:100098000A30F6070318F70A0030F7076D287308C7
:1000A8007702031D59287208760203185C285D2818
:1000B8006D287708F3007608F200760877040319AC
:1000C800662867286D280A30F6020030031CF703FB
:1000D800F70275087702031D732874087602031C5B
:1000E80076287728792808147A28081004307506A5
:1000F8007404031D802881288328F401F501013048
:10010800F4070318F50A0030F5078C1079088A00FF
:10011800780E8300FE0E7E0E09000A128A11B9209D
:100128000A128A110A128A11A5200A128A117B085A
:1001380083120313A1007A08A00096280A128A11D4
:100148000C28831203131F151F19AB28AC28A828E5
:100158001E08A300831603131E0883120313A200AC
:100168002308FB002208FA00080083120313880101
:100178008316031388010A128A11CC200A128A11E5
:100188000A128A11D9200A128A110B178B17080034
:100198008312031312109210831603138C14FA306F
:1001A80092008312031312150800831603139F1776
:0801B800831203131F14080059
:02400E00FB3F76
:00000001FF
