:020000040000FA
:060000000A128A110C280F
:10000800FE00030EF2000A08F3000A128A115D29A5
:100018000A128A110F280A128A116B220A128A11EF
:10002800F900A901AA01AB01AC01F701F8018301AC
:100038000A128A11022AC33083120313A200CC3099
:10004800A100A10B2528A20B25280000F4013330BC
:100058000A128A11F7200A128A111B30831203131D
:10006800A2009D30A100A10B3728A20B37283C28FD
:10007800F40133300A128A11F7200A128A11A530C6
:1000880083120313A100A10B47284A28F401333037
:100098000A128A11F7200A128A11522853280000DE
:1000A800F40102300A128A11F7200A128A11A530C7
:1000B80083120313A100A10B5F286228F4012830E2
:1000C8000A128A11F7200A128A11A5308312031323
:1000D800A100A10B6D287028F40101300A128A11C1
:1000E800F7200A128A11043083120313A2003D304C
:1000F800A100A10B7D28A20B7D28F4010C300A1267
:100108008A11F7200A128A11A53083120313A1005D
:10011800A10B8C288F28080083120313A500013037
:10012800A9020030031CAA03AA02290A031DA02859
:100138002A0A031DA028A128F628E830A9000330C0
:10014800AA002503031DA928AA28C72864302B065E
:100158000319AF28B028F6282B08063EA300230869
:10016800AB002C08C03EA3002308A100FF300A12F0
:100178008A1133220A128A11013083120313A30051
:100188002308AC07F62802302506031DCC28CD2805
:10019800F6282B080319D128D228E6282B08FA3E7E
:1001A800A3002308AB002C08C03EA3002308A1002D
:1001B80001300A128A1133220A128A11013083127D
:1001C8000313AC022B08031DEA28EB28F628C030DD
:1001D800A3002308A10001300A128A1133220A124F
:1001E8008A11F628080083120313A0007418FD284A
:1001F8000129831203130915042983120313091112
:100208002008F03988008914A630F500F50B0A2972
:10021800000083120313891020080F39F5000330FA
:100228000310F50DFF3E031D14290310750D8800FA
:100238008914A630F500F50B1F290000831203135B
:1002480089101B30F6009E30F500F50B2929F60BB6
:1002580029290000080083120313A300F4012108D0
:100268000A128A11F7200A128A114E29F401F40A97
:10027800230884000A128A111C220A128A110A12FF
:100288008A11F7200A128A11013083120313A2007F
:100298002208A30783120313230884000A128A1171
:1002A8001C220A128A11003A031D5B295C293A298B
:1002B8000800831203138C1C6229632983290130E7
:1002C800F7070318F80A0030F8072B08F000F101C7
:1002D80078087102031D722977087002031C7529BA
:1002E8007629782908147929081064307706780463
:1002F800031D7F2980298229F701F8018C107308D2
:100308008A00720E8300FE0E7E0E0900831203130C
:1003180088146430F4000030F500FF30F407031847
:10032800F50AFF30F507740A031D9E29750A031D97
:100338009E299F299129831203130618A429A52908
:10034800A7290130B4298618AA29AB29AD2902307A
:10035800B4290619B029B129B3290330B429FF30CB
:10036800080083120313A0000A128A118A210A12B4
:100378008A11F600760883120313A1002008031DD2
:10038800C629C729C9292108DD29210A0319CD2928
:10039800CE29D52979080319D229D329D529F901D4
:1003A800C729210A031DD929DA29DC29F901F90A03
:1003B800FF30080083160313081083120313081074
:1003C8000A128A1160220A128A110A128A11552207
:1003D8000A128A110A128A1148220A128A110B1764
:1003E8008B17803083120313A4002408A100013066
:1003F8000A128A112F210A128A1108000A128A1178
:10040800DE210A128A1100300A128A11B5210A1255
:100418008A1183120313A7002708A80028080A12C4
:100428008A1190200A128A11072A0A128A110C28A6
:1004380002308A000408840A820700344C344534A8
:1004480044342034443469346D346D346534723442
:1004580020344C346534763465346C34003483127B
:100468000313A200F40121080A128A11F7200A12C4
:100478008A11F401F40A8312031322080A128A115A
:10048800F7200A128A11080083120313121492101B
:10049800831603138C14FA30920083120313121577
:1004A800080083160313060807388600881481138A
:1004B8008312031388140800831603138801091193
:1004C80089100A128A111F200A128A1108000134A1
:02400E00FB3F76
:00000001FF
