:020000040000FA
:060000000A128A11E02F34
:100A760001348316031306083F38860008000A125D
:100A86008A114D250A128A110A128A113C250A1268
:100A96008A1108008316031388010508C3398500E7
:100AA600831203130508C339850008007E088A00EF
:100AB6007F0882000A128A1159250A128A118000BB
:100AC600840A04087D0603190034FF0A0319FE0A86
:100AD6005D2D3F3406345B344F3466346D347D34DB
:100AE60007347F346F34003400340634003407345E
:100AF600003408340034093400340134003401343D
:100B06000034F1007108031D892D8A2D8F2D831263
:100B1600031306083F39AD2D3F3083120313060534
:100B2600F0003F3070060319992D9A2DA12D7D08EE
:100B360003199E2D9F2DA12DFD018A2D3F300605FF
:100B4600F0003F307006031DA92DAA2DAC2DFD0126
:100B5600FD0A3F30080083120313CC01CD01383063
:100B660084002030F9000408FA000C30FB007908F4
:100B7600840083130008FC00F90A7A0884007C08C4
:100B86008000FA0AFB0BBA2D0130CA000030CB00F8
:100B96000A128A1142250A128A1101300A128A1192
:100BA60084250A128A11F900790883120313CE00EC
:100BB6003E304E06031DE02DE12DEE2D0130B60030
:100BC6000030B700D301D401D501D601B401B50177
:100BD600CC01CD012C2E3D304E06031DF32DF42DF8
:100BE600FB2DB601B7010130D3000030D400E72D4C
:100BF6003B304E06031D002E012E2C2E0130CC0755
:100C06000318CD0A0030CD070130D5000030D600DC
:100C1600B401B50102304C064D04031D132E142EEB
:100C26002C2E36033704031D192E1A2E1F2EB4013F
:100C3600B501D501D601EB2D53035404031D242E13
:100C4600252EEB2D0230B4000030B500D501D601BB
:100C5600EB2D52084B06031D322E51084A06031986
:100C6600352E362E572E3208383E84008313000860
:100C7600F9007908C9003008383E84000008F900F8
:100C86007908C8002E08383E84000008F900790863
:100C9600C7002C08383E84000008F9007908C60011
:100CA6005208CB005108CA0046300A128A116C2637
:100CB6000A128A110A308312031351065204031DC5
:100CC600652E662ED02DD101D201D02D0A128A11A1
:100CD6000028F700F430831203134F06031D772E06
:100CE6005003031D772E782E422FCF01D0013603F5
:100CF6003704031D7F2E802E862E550856040319B1
:100D0600852E862E8C2E34033504031D8B2E8C2EB9
:100D1600C52EFF30B2070318B30AFF30B307FF3002
:100D2600B0070318B10AFF30B107FF30AE0703184A
:100D3600AF0AFF30AF07FF30AC070318AD0AFF302C
:100D4600AD07B31FA72EA82EAC2E0C30B200003074
:100D5600B300B11FAF2EB02EB42E0C30B000003051
:100D6600B100AF1FB72EB82EBC2E0C30AE0000302F
:100D7600AF00AD1FBF2EC02E3A2F0C30AC00003096
:100D8600AD003A2F53035404031DCA2ECB2ED12E89
:100D9600550856040319D02ED12ED82E023034060B
:100DA6003504031DD72ED82E3A2F0130B20703186B
:100DB600B30A0030B3070130B0070318B10A003098
:100DC600B1070130AE070318AF0A0030AF07013094
:100DD600AC070318AD0A0030AD073308803AFF00B0
:100DE60080307F02031DF92E0D303202031CFC2ECB
:100DF600FD2E012F83120313B201B30183120313D5
:100E06003108803AFF0080307F02031D0C2F0D3021
:100E16003002031C0F2F102F142F83120313B0015F
:100E2600B101831203132F08803AFF0080307F023E
:100E3600031D1F2F0D302E02031C222F232F272FB9
:100E460083120313AE01AF01831203132D08803AF8
:100E5600FF0080307F02031D322F0D302C02031C51
:100E6600352F362F3A2F83120313AC01AD01013013
:100E760083120313D1070318D20A0030D2070130B8
:100E8600CF070318D00A0030D007360337040319FA
:100E96004D2F4E2F5A2F550356040319532F542FF7
:100EA6005A2F34033504031D592F5A2F942FF80156
:100EB60078087707F000700884008313000883120F
:100EC60003138800780AF0002030F1000030F200A9
:100ED6006F2F720DF20CF10CF00B6C2F83120313B3
:100EE6000508C339710485009030F3000130F40021
:100EF6000130F3020030031CF403F402730A031DED
:100F0600882F740A031D882F892F7B2F0130F0004C
:100F16007008F80704307802031C922F932F5B2F7A
:100F2600DF2F530354040319992F9A2FA62F550325
:100F3600560403199F2FA02FA62F34083504031D2E
:100F4600A52FA62FDF2FF80178087707F000700885
:100F5600840083130008831203138800780AF000C4
:100F66002030F1000030F200BB2F720DF20CF10CB4
:100F7600F00BB82F831203130508C33971048500DB
:100F86009030F5000130F6000130F5020030031C08
:100F9600F603F602750A031DD42F760A031DD42F15
:100FA600D52FC72F0130F0007008F80704307802FB
:100FB600031CDE2FDF2FA72F080083133830FD0018
:100FC6000530FE006C30FF00203084000A128A11C2
:100FD6005D250A128A110A128A113B250A128A1104
:100FE600FD00CF01D001D101D201D301D401D50139
:0A0FF600D60183010A128A11AE2D04
:02400E00FB3F76
:00000001FF
