:020000040000FA
:060000000A128A11E82F2C
:100D7E000A128A11C5260A128A1108008316031355
:100D8E0088010508C3398500831203130508C3398A
:100D9E00850008003F3406345B344F3466346D34BE
:100DAE007D3407347F346F34003400340334003420
:100DBE0002340034013400347E088A007F08820039
:100DCE000A128A11E3260A128A118000840A040884
:100DDE007D0603190034FF0A0319FE0AE72E2030A0
:100DEE0084003430F7000408F8000C30F90077085E
:100DFE00840083130008FA00F70A780884007A0842
:100E0E008000F80AF90BFE2E013083120313B20094
:100E1E000030B3000A128A11BF260A128A118312F9
:100E2E00031349083306031D1E2F48083206031903
:100E3E00212F222F432F7B08203E8400831300088E
:100E4E00F7007708AE004408203E84000008F70043
:100E5E007708AF004208203E84000008F7007708AC
:100E6E00B0004008203E84000008F7007708B1006B
:100E7E004908B3004808B2002E300A128A115827CA
:100E8E000A128A110A308312031348064904031DFD
:100E9E00512F522F162FC801C901162F0A128A116F
:100EAE000028F500F430831203134606031D632F4A
:100EBE004703031D632F642FA82FC601C7010130FE
:100ECE00FB070318FC0A0030FC070130C4070318A7
:100EDE00C50A0030C5070130C2070318C30A003027
:100EEE00C3070130C0070318C10A0030C1070C3018
:100EFE007B067C04031D842F852F872FFB01FC01AD
:100F0E000C3044064504031D8D2F8E2F902FC401E7
:100F1E00C5010C3042064304031D962F972F992FBF
:100F2E00C201C3010C3040064104031D9F2FA02FA8
:100F3E00A22FC001C1010130C8070318C90A003031
:100F4E00C9070130C6070318C70A0030C707F601E4
:100F5E0076087507F000700884008313000883126A
:100F6E0003138800760AF0002030F1000030F20002
:100F7E00C32F720DF20CF10CF00BC02F8312031362
:100F8E000508C339710485009030F3000130F40078
:100F9E000130F3020030031CF403F402730A031D44
:100FAE00DC2F740A031DDC2FDD2FCF2F0130F00054
:100FBE007008F60704307602031CE62FE72FAF2FDA
:100FCE00080083134630FD000630FE00D130FF00CE
:100FDE00343084000A128A11E7260A128A11C601D9
:100FEE00C701C801C901FB01FC0183010A128A1164
:020FFE00F62ECD
:02400E00FB3F76
:00000001FF
